:020000040800F2
:10000000380B0020BD01000855210008571F0008CB
:1000100000000000000000000000000000000000E0
:10002000000000000000000000000000592100084E
:100030000000000000000000572100085D210008BA
:10004000CF01000800000000CF010008CF01000828
:10005000CF010008CF010008CF010008CF01000840
:1000600000000000CF010008CF010008CF01000808
:10007000CF010008CF010008CF01000800000000F8
:10008000CF010008CF01000800000000CF010008E8
:10009000CF010008CF010008CF010008CF01000800
:1000A000CF010008CF010008CF010008AD250008EE
:1000B000D125000800F002F800F054F80CA030C878
:1000C000083824182D18A246671EAB4654465D46D4
:1000D000AC4201D100F046F87E460F3E0FCCB6464A
:1000E0000126334200D0FB1AA246AB4633431847E1
:1000F000A0470000C0470000103A02D378C878C17A
:10010000FAD8520701D330C830C101D504680C6059
:10011000704700000023002400250026103A01D378
:1001200078C1FBD8520700D330C100D50B607047AF
:1001300010B5642902D100F047F910BD732902D12E
:1001400000F0E9FD10BD002010BD1FB500F058FD06
:1001500004000020002104F0F7F8401C60601FBD7F
:1001600010B510BD00F0BCFE1146FFF7EEFF03F026
:1001700089FB00F0E3FE03B4FFF7F2FF03BC02F0DB
:1001800070FA000070B505460C46164602E00FCC2A
:100190000FC5103E102EFAD2082E02D303CC03C591
:1001A000083E042E07D301CC01C5361F03E0217899
:1001B0002970641C6D1C761EF9D270BD07488047FB
:1001C00007480047FEE7FEE7FEE7FEE7FEE7FEE73B
:1001D00004480549054A064B70470000ED21000818
:1001E000B500000838050020380B00203807002033
:1001F000380700207047000010B500F001FD001D19
:1002000010BD00BF45410000FEB5054610460C4636
:10021000184373D0AE468C460020AD1A01469C416F
:1002200067D36646002701243D46B61A9D4102D396
:1002300013463A462124654676462F04360C3E4343
:100240002D0CB61A9D4104D3150C1B042B4312042C
:100250001034654676462F06360A3E432D0AB61AF6
:100260009D4104D3150E1B022B4312020834654630
:1002700076462F0736093E432D09B61A9D4104D311
:10028000150F1B012B431201241D65467646AF074F
:10029000B6083E43AD08B61A9D4104D3950F9B00A6
:1002A0002B439200A41C65467646EF0776083E4332
:1002B0006D08B61A9D411AD392185B41641C16E072
:1002C0000018764665464941B71A9D410191009054
:1002D00009D36046B11A98418E4684460098019928
:1002E0000025401C6941DD0752082A435B08641E53
:1002F000E6D57246634603B0F0BDFFE70020014635
:10030000C046C0462A462346F5E700000FB405491B
:1003100010B503AA029800F003FD10BC08BC04B09D
:10032000184700006C00002070B50446856900681D
:10033000C10601D5302600E02026C00707D070BDD9
:1003400062683046A1689047206A401C20626D1E9A
:10035000F6D570BD70B5044685690078C00707D131
:1003600070BD6268A16820209047206A401C20620E
:100370006D1EF6D570BD70B50C460546012A05D038
:100380002878800600D5EA69002302E0012305E011
:100390005B1C934202D2E05C0028F9D1A869E61800
:1003A000C01AA861286AC01828622846FFF7BCFF57
:1003B00004E06A682078A968641C9047B442F8D3C6
:1003C0002846FFF7C7FF70BDF7B5002575291068EF
:1003D000009914A611D0C046C046002802DA404257
:1003E00011A608E0009909688A0701D50FA602E066
:1003F000490704D50EA6012501E0C046C046009F6E
:100400000024243704E000F0DDFC30313955641C51
:100410000028F8D12B4632462146009800F0F8FB20
:10042000FEBD0000000000002D0000002B000000B9
:1004300020000000F3B50446002081B02062204671
:10044000E1688847002872D0252802D06268A16838
:10045000ABE0594F00267F442046E16888472028BA
:10046000054608DB312D06D278192038007800289F
:1004700001D00643F0E7B00701D5042086430020F1
:10048000E0610746A0612A2D0AD0284602F0E2F872
:10049000002827D0B8000019303D0090856119E090
:1004A0000298BA00121902C8916102902046E168D0
:1004B0008847012F054617D1E06900281FDA202060
:1004C00086431CE000980A2180694843009940193E
:1004D000303888612046E1688847054602F0BAF85E
:1004E0000028EFD1012F0AD02E2D08D12046E16837
:1004F00088470546202006437F1C022FC3DBA069E6
:10050000002803DA4042A06101200643F00701D031
:10051000102086436C2D0BD0682D09D04C2D3CD07B
:100520006A2D38D0742D38D07A2D36D016E040E0C0
:10053000E1682F4620468847B842054609D16C2F0E
:1005400029D001208002E1680643204688470546FD
:1005500004E06C2F1DD0FF2001300643002D28D071
:1005600028464138192803D80120C0020643203507
:10057000204626602946029A1646FFF7D9FD002834
:1005800010D001280BD0F61DF008C00008300290F2
:1005900055E74020E1E78020D5E70020D3E7361D6E
:1005A00002964CE762682846A1689047206A401C82
:1005B00044E7206AFEBD0000FA40000070B5064620
:1005C00000F022FB0468054630460A22002100F0B4
:1005D000BBFB2C6070BD10B502F04CFE10BD0000DE
:1005E00010B5044603E002F045FE401C08D0207818
:1005F0000549641C0028F6D10A2002F03BFE10BD1C
:100600000020C04310BD00006C00002010B5002089
:1006100000F0D2FBFFF7A4FD012002F022F810BD8C
:10062000401ECAB24178401C8A4202D00029F9D14A
:1006300000207047034670B502460B439B070FD15D
:100640000E4CE60100E008C208C91D1B9D4335425F
:10065000F9D0D9B21170521C00290DD01B0AF8E74D
:100660000B78491C1370521C002B05D00B78491CC9
:100670001370521C002BF3D170BD00000101010169
:1006800030B5441C03E00178401C00290DD08107DF
:10069000F9D10B4BDD0104C8D11A91432940FAD09E
:1006A000001B0A0603D0C01E30BD001B30BD0A046B
:1006B00001D0801E30BD0902FCD0401E30BD0000BC
:1006C000010101010346F0B50B439B072DD1244DD9
:1006D000EF01042A29D308C810C95E1B9E43121FCC
:1006E0003E4017D0D8B2E1B2401A3106014310D1D2
:1006F00098B2A1B2401A310401430AD11802210272
:10070000000A090A401A3102014302D1180E210ED3
:10071000401AF0BDA342DCD018BA21BA884201D9F0
:100720000120F0BD0020C043F0BD002A01D100200F
:10073000F0BD03780C78401C491C002B0DD0A3425F
:100740000BD1521E09D003780C78401C491C002B99
:1007500003D0A34201D1521EEBD1181BF0BD000003
:1007600001010101F8B5042A2CD3830712D00B78BC
:10077000491C0370401C521E83070BD00B78491C88
:100780000370401C521E830704D00B78491C037071
:10079000401C521E8B079B0F05D0C91ADF00202377
:1007A000DE1B08C90AE0FFF7EDFCF8BD1D4608C9CD
:1007B000FD401C46B4402C4310C0121F042AF5D241
:1007C000F308C91A521EF0D40B78491C0370401C60
:1007D000521EEAD40B78491C0370401C012AE4D451
:1007E00009780170F8BD01E004C0091F0429FBD29B
:1007F0008B0701D50280801CC90700D002707047AA
:1008000000290BD0C30702D00270401C491E0229E8
:1008100004D3830702D50280801C891EE3E70022EF
:10082000EEE70022DFE70000024670B50A439207B8
:100830002AD11E4DEE0104C808C9541B944334400C
:1008400017D0D0B2D9B2401A2106014310D190B2CC
:1008500099B2401A210401430AD110021902000A78
:10086000090A401A2102014302D1100E190E401A42
:1008700070BD9A42DFD010BA19BA884201D901205E
:1008800070BD0020C04370BD02780B78401C491C2D
:10089000002A09D09A4207D102780B78401C491CE3
:1008A000002A01D09A42EFD0D01A70BD0101010197
:1008B000002203098B422CD3030A8B4211D300235D
:1008C0009C464EE003460B433CD4002243088B4237
:1008D00031D303098B421CD3030A8B4201D39446C4
:1008E0003FE0C3098B4201D3CB01C01A52418309B7
:1008F0008B4201D38B01C01A524143098B4201D371
:100900004B01C01A524103098B4201D30B01C01A9B
:100910005241C3088B4201D3CB00C01A5241830815
:100920008B4201D38B00C01A524143088B4201D342
:100930004B00C01A5241411A00D2014652411046A2
:1009400070475DE0CA0F00D04942031000D3404217
:10095000534000229C4603098B422DD3030A8B424D
:1009600012D3FC22890112BA030A8B420CD38901EB
:1009700092118B4208D3890192118B4204D38901D1
:100980003AD0921100E08909C3098B4201D3CB010F
:10099000C01A524183098B4201D38B01C01A5241C4
:1009A00043098B4201D34B01C01A524103098B42C8
:1009B00001D30B01C01A5241C3088B4201D3CB00B3
:1009C000C01A524183088B4201D38B00C01A524196
:1009D000D9D243088B4201D34B00C01A5241411A6D
:1009E00000D20146634652415B10104601D340429B
:1009F000002B00D54942704763465B1000D340424C
:100A000001B50020C046C04602BD70477047704720
:100A1000F0B5FF252D04C609C209FF2704462E4064
:100A20000137CB093E4348402A402B400746002A65
:100A30006BD0002B69D0AA4267D0AB4265D00028AA
:100A400000DA32460125ED0529432C430902200234
:100A5000090AD21A4B0C7F24E31A434C000A7C4447
:100A6000E35C7D242404121914145B00A21888424C
:100A700001D3521C00E0400049420C465C43241163
:100A80005C43DB016415E318040A5C43C502200DD6
:100A90000C4644436419250A5D432303EC0C0D46C0
:100AA000654300030019EB184C42A34201D35B18C5
:100AB000401CD4052018002B07D05B00C91804D3B4
:100AC000401C002901D1400840003F2189048A428E
:100AD00009D3002A08DC1106090F04D003214907B5
:100AE0004018C00FC007F0BD01224100120689184E
:100AF0007F2252069142F6D205214907C84201D50C
:100B00009010F0BDFF20C005F0BD002F00DA324686
:100B10001648AA4207D2AB4205D21902090E17D0D5
:100B2000F80FC007F0BDFF2563002D06AB42F9D8D2
:100B30004900A942F6D8AB4201D1A942F2D0A9425C
:100B400001D1002101E061004908D0050843F0BD52
:100B50001102090EFBD0FF200243D005F0BD0A466A
:100B60000146104654E70000033B00000000C07F30
:100B70000102C21504D00123DB071943002A0ADB56
:100B80009E239A1A02D40846D0407047FF224100A3
:100B90001206914201D900207047C017C043704728
:100BA0001F22030C02D10F2200041CD0030E01D11E
:100BB0000002083A030F01D10001121F830F01D177
:100BC0008000921E002801DB4000521ED205511801
:100BD000021251181922904004D3491C002801D157
:100BE0004908490008467047C10FC90700D0404274
:100BF000012292071143D3E701218907D0E770470B
:100C000000487047F404002000487047D4040020D6
:100C1000FFB504460D4681B0243000902168880657
:100C200004D51022E0699143216000E00120A84230
:100C300001DD471B00E000270498A1697A1910180C
:100C4000081AA0612078C00602D42046FFF76CFB8A
:100C5000002608E003986268A168805D9047206ADA
:100C6000401C761C206204988642F3DB2078C00684
:100C70000AD52046FFF758FB06E06268A1683020DD
:100C80009047206A401C206238467F1E0028F4DC12
:100C900007E000986268A168405D9047206A401CA8
:100CA000206228466D1E0028F3DC2046FFF752FB29
:100CB0002078000602D5022005B0F0BD0120FBE738
:100CC00001694A1C02610878704700B58FB0029133
:100CD000002105910549019379440391114604903F
:100CE0006846FFF7A7FB0FB000BD0000E5FFFFFF60
:100CF00010B54369002B02D0C046C04601E0FFF7A3
:100D00003AFB012010BD1278014624310A700022FE
:100D10004A700122ECE711680022D243E8E70000A4
:100D2000084B70B50D467B44FFF7CFFF04462846BD
:100D300000F0B3F8002802D00020C04370BD204668
:100D400070BD00004B250000F7B50F460026009C43
:100D50002578641C002D05D0FFF74EFA0068405D31
:100D6000C007F5D12B2D02D02D2D18D0641E394689
:100D7000029A204600F03EF8002F04D03968A142C4
:100D800001D1009939607105022400290BDA404233
:100D9000002803DDFFF738FF0460A007FEBD012037
:100DA00080020643E3E70028F8DAFFF72DFF04602E
:100DB0000048FEBDFFFFFF7F10B500F079F800F09E
:100DC00070F810BD01468008081A02091018020ABE
:100DD0001018020C1018C008820012185200891A4C
:100DE00001E0401C0A390A29FBD2704700487047CD
:100DF000D4040020F7B5154682B00027029C207865
:100E0000641C0197302802D0002D15D015E0207801
:100E10000127641C782804D0582802D0002D09D05E
:100E20000BE0002D01D0102D07D1207800271025D0
:100E3000641C02E0082500E00A250026009610E068
:100E4000009901276943081829467143020C80B2B2
:100E500000908E183804864201D30120019020783A
:100E6000641C294600F05BF80028E9DA03980028A2
:100E700005D0002F01D0641E00E0029C04600198A0
:100E8000002806D0FFF7C0FE02210160C81E05B091
:100E9000F0BD009930040843F9E7C068802108409C
:100EA000704710B5002801D001F0DBFB10BD000039
:100EB00010B5002102A000F049F8012010BD00008B
:100EC000534947414252543A2041626E6F726D61FC
:100ED0006C207465726D696E6174696F6E000000DC
:100EE0007546FFF783FFAE46050069465346C008C6
:100EF000C000854618B020B5FFF76AF960BC00272E
:100F00004908B6460026C0C5C0C5C0C5C0C5C0C5D5
:100F1000C0C5C0C5C0C5403D49008D4670473A2890
:100F200000D23038202302469A43412A01D310468A
:100F30003738884201D30020C043704710B50446BB
:100F4000C046C0462046FFF716F910BD70B50546ED
:100F50000C460A2000E06D1C01F084FB002D06D039
:100F600028780028F7D102E0641C01F07BFB002CFC
:100F700002D020780028F7D10A2001F073FB70BD61
:100F800070B50546002402F083FD04E0012002F064
:100F9000A1FD641CE4B2A988286800F035F9002896
:100FA00002D0C82CF2D310E0C82C0ED2002404E0EA
:100FB000012002F08FFD641CE4B2A988286800F0CB
:100FC00023F9002803D0F02C04D3012070BDF02CAD
:100FD000EED3FAE7002070BD72B6FEE730B50146E9
:100FE00020314B780022022B04D0042383630A7043
:100FF000012030BD03681C680E25AC431C600368EB
:101000001C68640864001C600123056C1C46C06BEE
:10101000AC4044604B700A70002030BD70B50024B5
:10102000014620314A78022A03D004218163012439
:1010300016E0026813680E25AB431360026813685C
:101040005B085B0013600122056C1346AB40C56B67
:101050006B604A7000220A70416B002900D08847FB
:10106000204670BDF8B5002303240125BAE02E46C2
:101070009E40B44632407CD00E79B607B60F012EA2
:1010800001D0022E17D186682746B6465E00B740CB
:1010900000967646BE43B646CF68009EB740764679
:1010A0003743876046686746BE430F79FF06FF0FE8
:1010B0009F40374347600E79F643B6070ED0C668A7
:1010C0002746B4465E00B646B7406646BE43B446C1
:1010D0008F687646B74066463743C7600E79B607D5
:1010E000B60F022E14D1DE08B60036180096366A06
:1010F0005F07B446FE0E0F27B646B7406646BE43AE
:10110000B4460F697646B74066463743009E37625D
:1011100006682746B4465E00B646B7406646BE43FC
:101120000F79B446BF07BF0F7646B74066463743D0
:1011300007604E68B603B60F53D02D4FBE692E43DD
:10114000BE61BE699F08F607F60F2A4EBF00BE19A2
:101150000096B6680F27B4469E07360FB646B740CE
:101160006646BE430927FF06B446B84202D10027AF
:1011700010E036E0204FB84201D101270AE01F4FAE
:10118000B84201D1022705E01D4FB84201D1032723
:1011900000E005277646B74066463743009EB760B5
:1011A000184EB6684F689643FF0200D51643154F98
:1011B000BE60FE684F689643BF0200D51643114FCC
:1011C000FE607E684F689643BF0300D516430D4FFF
:1011D0007E603E684F689643FF0300D51643094A78
:1011E00016605B1C0A681646DE4000D03FE7F8BD7B
:1011F00000100240000001400004004800080048C0
:10120000000C0048000401400069084000D00120A3
:101210007047002A01D081617047816270470000E9
:1012200001488068704700000000002070B5024649
:1012300040325378202B1CD11378012B19D0012375
:10124000137024245470046825689D432560046845
:1012500025681E03B5432560046825680D43256095
:101260000068016819430160202050700020107050
:1012700070BD022070BD70B5024640325378202BFD
:101280001BD11378012B18D0012414702423537020
:1012900003681D68A5431D6005682B680F2636028C
:1012A000B3430902194329600068016821430160C2
:1012B000202050700020107070BD022070BD000012
:1012C00070B5040006D02546403568780026002811
:1012D00002D005E0012070BD2E70204600F04AF8D3
:1012E00024206870206801684908490001600F21C6
:1012F0006068090688432168086121688A680120BE
:10130000C00382438A60E1680129A16808D02122D4
:101310009202114322689160E168022902D005E03F
:101320000143F7E701212268C902516021684A6838
:101330000F4B1A434A602168CA688243CA606169D8
:1013400020690843A169090208432168C860216A2D
:10135000E0690843216808602068016801221143A0
:1013600001606664202068702663AE70002070BD46
:1013700000800002F0B587B0044614216846FFF7EC
:1013800050FA1C4F2668012000211B4C80041222B9
:1013900003230125BE4210D1666906436661666972
:1013A00002AF06401802009001926AC769461348CE
:1013B000FFF758FEE169680514E0114FBE4216D1EF
:1013C000666906436661666902AF064003208002D3
:1013D000009001926AC769460848FFF743FEE16939
:1013E000012080050143E161E1690140059107B0F9
:1013F000F0BD00000054004000100240000400480E
:10140000005800400248816802788918816070475E
:101410000000002010B50648016810221143016049
:10142000032000F007F800F027F8002010BD0000AE
:101430000020024070B504460D4D7D202978C00083
:10144000FFF736FA01460B480068FFF731FA00F063
:101450002DFB002809D1042C07D200222146401E72
:1014600000F02AF800206C6070BD012070BD000003
:10147000000000200C00002008B508488169012206
:1014800011438161816911400091C26901040A43DD
:10149000C261C0690840009008BD00000010024011
:1014A000002805DBC106C90E0120884001490860FB
:1014B0007047000000E100E010B501F0A9F810BD90
:1014C000F8B505460068354CC00352D5E0690026E2
:1014D000C00007D4E16920040143E161E1690140F2
:1014E000012600912E480168C90510D401688215B3
:1014F00011430160FFF794FE074604E0FFF790FEFA
:10150000C01B642824D826480068C005F6D5206A88
:1015100003273F02384020D06968394081421CD0FF
:10152000206A226AB843012109040A432262226A1E
:101530008A4322622062C0070FD0FFF771FE00903D
:1015400008E0FFF76DFE0099411A1648814201D963
:101550000320F8BD206A8007F3D5206A6968B84384
:1015600008432062002E04D0E16901200007814376
:10157000E1612878C00705D0206BA9688008800049
:10158000084320632878800605D5206B1021884306
:10159000E968084320630020F8BD00000010024005
:1015A0000070004088130000F8B50F46060059D0BF
:1015B0003A4D2868C007C00FB84209D228684008D1
:1015C0004000384328602868C007C00FB84249D19E
:1015D0003068334C81070CD5400704D5606807217B
:1015E0000902084360606068F0218843B1680843DD
:1015F00060603078C00726D0706801280ED021685E
:1016000002280ED0890700292CDA61688908890030
:1016100001436160FFF704FE00900DE0216889033B
:10162000F1E78901EFE7FFF7FBFD0099411A1D483B
:10163000814201D90320F8BD60680C21084071681F
:1016400089008842EFD12868C007C00FB8420BD983
:10165000286840084000384328602868C007C00F49
:10166000B84201D00120F8BD3078400706D5606847
:10167000072109028843F1680843606000F028F8F8
:101680006168094A0906090F515CC84007490860AA
:101690000320FFF7CFFE0020F8BD0000002002402D
:1016A0000010024088130000444400080C00002091
:1016B0000448054900684968044A4905490F515CD6
:1016C000C84070470C00002000100240544400083D
:1016D00010B5104A51680C200B4603400E48042BED
:1016E00017D0082B15D18B020C4C1B0FE45CD26A6F
:1016F0000A4B1207120F10339A5CC90305D5002359
:101700001946FEF781FD214601E02046044900F01C
:1017100067FF10BD0010024000127A002444000848
:1017200000093D00FEB5040070D02078DC4DC007F4
:101730004AD068680007800F012807D06868000752
:10174000800F022809D16868C00306D52868800385
:101750003AD560680028E7D036E06168012914D0E6
:1017600001208004002901D0052914D02A68012114
:1017700009048A432A602968814329606068002837
:1017800016D0FFF74DFD06460EE02868012109043A
:1017900008432860F2E7296801432960F5E7FFF76D
:1017A0003FFD801B64286ED828688003F7D50BE0C6
:1017B000FFF736FD064604E0FFF732FD801B642884
:1017C000F1D828688003F7D4207801268007002804
:1017D0003CDA68680007800F07D068680007800F50
:1017E000022809D16868C00306D42868800716D586
:1017F000E06801280AD112E0E0680028286816D0C5
:1018000030432860FFF70CFD074605E043E1FFF792
:1018100007FDC01B0228C6D828688007F7D52868AE
:10182000F82188432169C900084328600EE0400878
:1018300040002860FFF7F4FC074604E0FFF7F0FCE7
:10184000C01B0228AFD828688007F7D4207800078B
:1018500022D5E0690028686A0ED030436862FFF73D
:10186000DFFC074604E0FFF7DBFCC01B02289AD828
:10187000686A8007F7D50FE0400840006862FFF70C
:10188000CFFC074605E09DE0FFF7CAFCC01B02281D
:1018900089D8686A8007F7D4207804274007002891
:1018A00060DA00200190E869C00008D4E969B80650
:1018B0000143E961E9690140012000910190794803
:1018C0000168C90511D40168821511430160FFF751
:1018D000A7FC009005E0FFF7A3FC0099401A6428DC
:1018E00070D870480068C005F5D5A06801280AD0F6
:1018F000002801D0052810D0286A4008400028623E
:10190000286AB84301E0286A30432862A0680028AA
:1019100012D0FFF785FC00900AE0286A384328625D
:10192000F1E7FFF77DFC0099411A5F48814249D8F1
:10193000286A8007F5D50DE0FFF772FC009006E0FD
:10194000FFF76EFC0099411A574881423AD8286A3D
:101950008007F5D40198002804D0E9690120000728
:101960008143E9612078C00635D5606901280CD033
:10197000401D686B23D038436863686B40084000A3
:101980006863FFF74DFC064622E0686B38436863E6
:10199000686B30436863FFF743FC064604E0FFF7DB
:1019A0003FFC801B02285BD8686B8007F7D5686B0B
:1019B000F8218843A169C900084368630BE0B84374
:1019C0006863F4E74CE0FFF72BFC801B022847D844
:1019D000686B8007F7D4206A00285ED06968090721
:1019E000890F022942D0012636060228286805D030
:1019F000B0432860FFF714FC044633E0B04328608E
:101A0000FFF70EFC074604E0FFF70AFCC01B0228A4
:101A100026D828688001F7D4E86AE16A0009000145
:101A20000843E862616AA06A084369683D221204BB
:101A3000914308436860286830432860FFF7F0FB53
:101A4000044604E0FFF7ECFB001B022808D82868D6
:101A50008001F7D521E0FFF7E3FB001B022801D945
:101A60000320FEBD28688001F5D416E00128F8D0D7
:101A70006868E96A01221204636A02409A420AD144
:101A80000907E26A090F914205D10F218904084034
:101A9000A16A884201D00120FEBD0020FEBD0000E9
:101AA000001002400070004088130000094910B582
:101AB000401E884201D9012010BD074C60610321FE
:101AC000081F00F0A5FD0020A06107202061002074
:101AD00010BD0000FFFFFF0000E000E0704770470E
:101AE000F8B502680446D069116893689E4D0646B1
:101AF0002E4025468035002E71D09C4FDE07F60F14
:101B00000F4037437ED0C70706D0CF0504D5012745
:101B100017626A683A436A60820708D5DA0706D016
:101B2000276802223A626A6804273A436A604207D9
:101B300008D5DA0706D0236804221A626A680223ED
:101B40001A436A60020709D520220A40324305D0B1
:101B5000236808221A626B6813436B60020509D57B
:101B60004A0107D501222368D2021A626B6820223B
:101B700013436B606A68002A39D0800606D5880650
:101B800004D5A16E002901D02046884768682168E5
:101B90008968490602D4282108422DD0204600F049
:101BA000F7FB21688868400622D5EFF310800122F8
:101BB00082F310888A6840239A438A6080F31088F1
:101BC000606F002814D06A494163606FFFF726FAFE
:101BD00000280CD0606F416B08E000E012E0830643
:101BE00010D58B060ED5A16EA3E020468847F8BD20
:101BF0002046FFF774FFF8BD2046FFF770FF002076
:101C00006860F8BD236E012B7ED1C3067CD5CB0660
:101C10007AD5102313622268906826464006403623
:101C2000002848DA616F086840680004000CE8D0BA
:101C3000378B8742E5D970838869202834D0EFF349
:101C40001080012181F3108811681F01B9431160D0
:101C500080F31088EFF31080012181F31088216850
:101C60008A68520852008A6080F31088EFF310806F
:101C7000012181F3108821688A684027BA438A606D
:101C800080F310882020286000202066EFF3108069
:101C9000012181F3108821680A689A430A6080F361
:101CA0001088606FFFF79AF902206066308B718BA5
:101CB000401A81B234E0308B718B401A81B2708B44
:101CC00000289ED000299CD0EFF31080012686F3D7
:101CD00010881668FF272137BE43166080F31088EE
:101CE000EFF31080012282F310882268966876084C
:101CF0007600966080F310882020286000202066FF
:101D0000A066EFF3108000E00EE0012282F310885D
:101D1000226815689D43156080F310880220606674
:101D20002046FFF7DBFEF8BD030606D50B0604D5FB
:101D3000E16E002900D058E7F8BD4006FCD5480602
:101D4000FAD52046EFF31081012383F3108814683D
:101D500040239C43146081F310882021C167002137
:101D6000C16600F0F7F8F8BD0F080000200100047C
:101D70007D23000810B5040003D0E06F002802D0D6
:101D800007E0012010BD002178200155204600F019
:101D900027F82420E06720680168490849000160AD
:101DA000204600F025FB0128ECD0606A002802D014
:101DB000204600F01CFA206841680122D2029143BB
:101DC0004160206881680822914381602068016831
:101DD000012211430160204600F06EFA10BD0000A0
:101DE000F0B587B0044614216846FEF71AFD264F69
:101DF00001212668002225484904022303240125E5
:101E0000BE421DD18769CE1037438761876937404D
:101E1000059746690E434661406901930840059065
:101E20006002009002AE34C609206946C006FFF782
:101E300019F9002211461B20FFF73EFB1B201EE074
:101E4000134FBE421DD1C6690E43C661C6690E401E
:101E5000059646690E434661406901930840059026
:101E60000C20009002AE34C609206946C006FFF778
:101E7000F9F8002211461C20FFF71EFB1C20FFF77B
:101E80000FFB07B0F0BD0000003801400010024019
:101E900000440040FFB50446C06F83B017460D46AE
:101EA000202802D0022007B0F0BD002D0BD0002F5B
:101EB00009D00120A1680003814206D120690028D1
:101EC00003D1E80701D00120EDE700218420015172
:101ED0002120E067FFF7A4F92646403601903782BB
:101EE00077820120A1680003814202D12069002885
:101EF00002D02F46002511E000270FE000228021AC
:101F0000204600F00DFB002815D1002F17D02168C6
:101F1000387808857F1C708A401E7082708A019B09
:101F2000002806980090E9D100224021204600F0C8
:101F3000F7FA00280AD02020E0670320B3E72888BA
:101F40002168C005C00D0885AD1CE4E72020E067CE
:101F50000020A8E77047FEE7F0B587B01421684677
:101F6000FEF75FFC2F4842690121C9040A43426120
:101F700042690A4005924269C9000A4342614269C6
:101F80000A400592426949110A43426142690A4086
:101F90000592426949000A434261406903260840AC
:101FA000B6030590002231461F48FFF732F9FF279C
:101FB000F137092000223946C006FFF72AF900222E
:101FC0001A491B48FFF725F90024012502946946A8
:101FD0001548009601950394FFF744F803200090FC
:101FE0000920019469460294C006FFF73BF80920D6
:101FF00002946946C006009701950394FFF732F8F2
:102000000A48009002946946019503940848FFF736
:1020100029F801946946064800960294FFF722F8D1
:1020200007B0F0BD0010024000080048FF3000007B
:102030000004004810B5134811490160124941607D
:10204000002181600161416181610122C161C26041
:102050000162FFF735F9002801D0FEF7BDFF00212E
:102060000848FFF7E3F8002801D0FEF7B5FF00218C
:102070000448FFF700F9002801D0FEF7ADFF10BDBE
:1020800000540040980000202208100010B51348AA
:102090001149016012494160002181600161416183
:1020A00081610122C161C2600162FFF709F9002864
:1020B00001D0FEF791FF00210848FFF7B7F800288C
:1020C00001D0FEF789FF00210448FFF7D4F800286B
:1020D00001D0FEF781FF10BD00580040EC00002049
:1020E0002208100010B50C480A490160E12149029C
:1020F000416000218160C16001618161C1610C2288
:10210000016242614162FFF735FE002801D0FEF70F
:1021100063FF10BD003801404001002010B50C489D
:102120000A490160E1214902416000218160C160EA
:1021300001618161C1610C22016242614162FFF76C
:1021400019FE002801D0FEF747FF10BD00440040F3
:10215000C8010020FEE770477047000010B501205D
:1021600002F028F8024901200860FFF74BF910BD82
:102170004403002030B595B030216846FEF751FB8E
:10218000002401200E94010413940F9410940991DB
:102190000D940090019003210C941294022589045F
:1021A0000B90119408950A916846FFF7BBFA002836
:1021B00001D072B6FEE707200C900E9400210D9519
:1021C0000F940CA8FFF7F0F9002801D072B6FEE7D3
:1021D0002120109010201390129410A8FFF770F98E
:1021E000002801D072B6FEE715B030BD704710B5BB
:1021F000818CC90707D001684A6801235B049A43B0
:10220000836A1A434A60818C890707D501684A6846
:1022100001231B049A43C36A1A434A60818C49070D
:1022200007D501684A6801239B049A43036B1A434C
:102230004A60818C090707D501684A680123DB03DE
:102240009A43436B1A434A60818CC90607D50268DA
:10225000916801231B039943836B19439160818C1F
:10226000890607D501688A6801235B039A43C36B1B
:102270001A438A60818C490612D503685A68012185
:102280000905046C8A4322435A60026C8A4207D1D2
:102290000268516803235B059943436C19435160FD
:1022A000818C090607D501684A680123DB04806C2C
:1022B0009A4302434A6010BDFEB5074600258037A9
:1022C00004467D60FEF7ACFF01902068006826465A
:1022D00000076036002819DA274800900121002203
:1022E00049052046019B00F01BF900280ED0EFF3B2
:1022F0001080012181F3108821680A6880239A43A5
:102300000A6080F310882020E06729E020680068D8
:10231000400728D518480090012100228905204651
:10232000019B00F0FDF800281DD0EFF31080012183
:1023300081F3108821680A68FF2321339A430A60D9
:1023400080F31088EFF31080012181F31088216859
:102350008A68520852008A6080F310882020386012
:1023600035760320FEBD2020E0673860256665666F
:1023700035760020FEBD0000FFFFFF0110B5406A6A
:102380000022014640314A834A82FFF7A8FB10BD74
:1023900010B5EFF31081012282F3108802681368F0
:1023A000FF242134A343136081F31088EFF31081DD
:1023B000012282F31088026893685B085B009360D7
:1023C00081F31088016E01290BD1EFF310810122F6
:1023D00082F31088026813681024A343136081F30A
:1023E0001088202280210A5000210166816610BDDC
:1023F00070B5044680682169E26908436169002577
:1024000011432268084311683F4B19400143116092
:1024100021684868032212039043E2681043486031
:10242000A169206A084321688A680B231B029A432A
:1024300002438A6035492068884210D13448006BD5
:102440008007800F0ED0012805D0022805D0032870
:102450000AD1022109E0042107E0082105E02D4905
:10246000884201D1002100E010210120E369C0036E
:10247000294A2A4E834222D1002906D0022907D0B8
:10248000042907D0082935D108E0FFF711F903E046
:10249000104603E0FFF71CF9002830D061684000C7
:1024A0004A088018FEF704FA01461039B14221D8D3
:1024B0001A49491C01400007400F08431DE000294C
:1024C00006D0022907D0042907D0082912D108E034
:1024D000FFF7EEF803E0104603E0FFF7F9F80028F5
:1024E0000DD061684A081018FEF7E2F9014610396C
:1024F000B14201D9012502E080B22168C860002004
:10250000A066E066284670BDF369FFFF0038014011
:10251000001002400044004000127A00EFFF00006B
:10252000FFB5064681B080360546044660350A9FF1
:102530002EE0781C2CD0FEF773FE0499401AB842A6
:1025400014D8002F12D020680168490720D5C1692E
:10255000C94309070CD4082707622046FFF718FF74
:10256000776000202876012005B0F0BD0320FBE74E
:10257000C069C04300050BD401202168C002086275
:102580002046FFF705FF2020706000202876EDE749
:102590002068C1690298884305D0002103988142D0
:1025A000C7D00020E0E70121F8E7000010B5074898
:1025B0000068C169890605D5808CC1B2002000F091
:1025C000EDFC10BD0148FFF78BFA10BD4001002063
:1025D00010B50248FFF784FA10BD0000C8010020C2
:1025E000F8B5040C8BB2264682B25E430D0C104641
:1025F000370C5843360480190021794116466E4342
:10260000370C36048019794126466E438919F8BD86
:102610008307FF22DB0E9A408907090E99400028A4
:1026200008DB830809489B001B181868904308437F
:10263000186070470007000F0838830804489B00A3
:102640001B18D86990430843D861704700E400E044
:1026500000ED00E030380A2801D201207047002048
:102660007047704770470000F8B517460D460024C4
:102670000DE0A600A859002100F09AFAA9590028F7
:1026800001D006A000E00DA0FDF740FE641CBC4296
:10269000EFDB00F063F90020F8BD00002573206D2A
:1026A0006F64756C65207365742064697361626C16
:1026B000656420737563636573730A00756E6B6F71
:1026C0006E77206D6F64756C653A2025730A000083
:1026D000F8B517460D4600240DE0A600A8590121C3
:1026E00000F066FAA959002801D006A000E00DA06C
:1026F000FDF70CFE641CBC42EFDB00F02FF900205C
:10270000F8BD00002573206D6F64756C65207365DE
:102710007420656E61626C656420737563636573B4
:10272000730A0000756E6B6E6F77206D6F64756C49
:10273000653A2025730A000010B5034A01210020E4
:1027400000F072FB10BD00008D28000810B50022BB
:102750000121104600F068FB01490020087010BDFF
:102760001000002010B51349024600240878082AFA
:1027700006D01B2A10D00D2A19D00A2A17D017E02C
:102780004A680124002A01DD521E4A604978084245
:102790000ED00949082007E000224A604978012448
:1027A000084205D004490A20FDF715FF00E0012486
:1027B000204610BD100000206C00002010B5174806
:1027C000846817A0FDF7A2FD1EE0FDF759FF092858
:1027D00020D316A12068FEF727F800281AD016A1EA
:1027E0002068FEF721F8002814D016A02168FDF714
:1027F0008DFDA168002902D013A0FDF787FD1349C4
:102800000A20FDF7E8FE0C34206801780029DCD1AD
:10281000002010BD0EA02168E9E700001000002094
:10282000616C6C20636D64733A0A0000636C6561CF
:10283000725F646174610000636C6561725F6C6FEC
:102840006700000025730900202573006C0000203C
:10285000257309090000000010B5074C0548A06069
:102860000649012001F022FDFFF766FF01202070DC
:10287000607010BD60440008100000207D2B00082F
:1028800010B500F06BF8002010BD0000F8B5002571
:10289000284C064600294AD1A078002801D00A2EEB
:1028A0000ED0A570012001F02FFD234F0A2E0BD072
:1028B0000D2E07D03046FFF755FF002838D121E014
:1028C000A57035E00120A07020786178084202D020
:1028D0001AA0FDF71BFD606806223D5418A116489A
:1028E000FDF7F0FE002804D0134908463C30FDF700
:1028F000A1FE1148FDF7C4FE002818D00E4800F0D4
:1029000065F814E020786178084203D00E4930461B
:10291000FDF761FE60683E54401C60603B2807DBA9
:1029200020786178084202D008A0FDF7EFFC6560CE
:102930000120F8BD10000020500200200A00000015
:1029400072657065617400006C000020636D642026
:10295000746F6F206C6F6E670A00000010B50DA0D9
:10296000FDF7D4FC0024E0B200F0A4FC002805D060
:10297000E0B200F08BFC01460EA004E0E0B200F0F3
:1029800085FC01460EA0FDF7C1FC641C052CEADBAA
:1029900010BD00000A6D6F64756C65206F757470F2
:1029A000757420737461747573206C6973743A0A5A
:1029B000000000002573205B7965735D0A0000004C
:1029C0002573205B6E6F5D0A00000000F1B58AB0D0
:1029D0002AA10A98FDF728FF002601252A4C002885
:1029E00019D02AA10A98FDF71FFF00281AD02078D5
:1029F000002815D0AD1E20210A98FDF711FE0028F1
:102A000001D00670401C0A236A4625A101F09AFBFA
:102A10000646A76813E023A0FDF778FC25706670D2
:102A20000BB0F0BD2AA0FDF771FC25706670002088
:102A300015E00A99FDF7F8FE002813D00C37386826
:102A400001780029F5D1207861782E46084202D01D
:102A50002DA0FDF7C5FD60780028E1D1304600F0DB
:102A60009BF8DDE77B68324669460A989847064638
:102A7000386800780028E6D0EDE7000067697665E1
:102A80006D65636D64000000100000206769766565
:102A90006D65636D645F666F725F414900000000A1
:102AA00020000000636D6420656E61626C652C20FF
:102AB000696E7075742068656C7020746F2067652E
:102AC00074206176616C696420636D640A000000A3
:102AD000636D64207769746820666F726D6174201D
:102AE000656E61626C652C20696E70757420686516
:102AF0006C7020746F20676574206176616C696406
:102B000020636D640A000000696E76616C69642060
:102B1000636D640010B5002000F074FFFEF76CF8E0
:102B2000084901F027FC0849FDF772FFFEF720F87D
:102B30000A21FDF7BDFE0A46014604A0FDF7E6FBAB
:102B4000002010BD00401C4400007A4474656D7084
:102B50003A25642E25640A0010B5002A04DD0868B1
:102B6000FDF72CFD010001D17D21C900012001F0FC
:102B7000BDFB00F003F8002010BD000000B58FB0D1
:102B800004496846FDF756FD6846FFF71FFF0FB082
:102B900000BD00008C02002010B5002000F06EF98E
:102BA0000122024901F07DF910BD00005C440008DB
:102BB000F8B500250E4607462C46E0B200F066FB4D
:102BC00001463846FDF730FE002806D00BA13846F6
:102BD000FDF72AFE002806D00AE0E0B2314600F0F8
:102BE0004FFF012507E0E0B2314600F049FF012523
:102BF000641C052CE1DB2846F8BD0000616C6C000C
:102C000010B5FF2103A2183103A001F0DDF9002067
:102C100010BD0000300000002E2E5C757365725CE4
:102C20007372635C6170705F636D642E630000009B
:102C30007CB501F07BFB014612A0FDF767FB01F0BC
:102C400071FBC66801F06EFB856801F06BFB4468A0
:102C500001F068FB01682B4622460BA00096FDF7A9
:102C600055FB01F05BFB014611A0FDF74FFB009700
:102C70003B463A46394612A00197FDF747FB002034
:102C80007CBD000025730A004D617374657220538A
:102C90006F6674776172652056657273696F6E3AFC
:102CA0002025642E25642E25642E25640A0000004C
:102CB0004275696C642054696D653A2025730A0079
:102CC00052756E2054696D653A20256420646179DF
:102CD0002C20253032643A253032643A2530326473
:102CE0002E253033640A000010B5084900220A80FE
:102CF000488000F00FF80649032001F0D7FAFF21C1
:102D0000F531032001F0F2FA10BD00004000002070
:102D1000152D000810B50B4C2088618888420DD213
:102D200000F01CF80849042001F0C0FAFA21042040
:102D300001F0CAFA2088401C208010BD032001F059
:102D4000E3FA10BD400000204D2D000810B5092009
:102D500000221021C006FEF75CFA10BD10B5092054
:102D600001221021C006FEF754FA10BD10B50A4C1E
:102D7000206901F00BFAA1684018084988420ADB73
:102D80000620FFF7B1FF012251030548FEF741FA83
:102D9000022001F0B9FA10BD40000020E0930400C9
:102DA00000040048F8B50F460C21484300250B49A4
:102DB0002C464618A0003258002A04D0002D07D017
:102DC000012138469047641C032CF3DB2846F8BDEC
:102DD0000021384690470546F5E70000C80200206C
:102DE000F1B500980C4C8700E05901F04DF8061E33
:102DF00010DD00250CE0E05900F0D6FFC1B20098CC
:102E0000FFF7D0FFE05901F03FF8002802D06D1C19
:102E1000B542F0DBF8BD00001C000020014A800034
:102E2000115070471C00002070B515460C46064630
:102E3000032904D305A25D210AA001F0AFF80C20FC
:102E400046430D483018A100455070BD6F7264654F
:102E500072203C206B436F6D48616E646C654D6100
:102E6000780000002E2E5C757365725C7372635C73
:102E7000636F6D2E63000000C802002001498000CE
:102E8000085870471C00002010B5040004D004A2AC
:102E9000352108A001F082F80C49E000401810BD6F
:102EA000636F6D5F6964203C206B436F6D49444DD7
:102EB000617800002E2E5C757365725C7372635CC2
:102EC0006472765F636F6D2E630000002000002047
:102ED00070B5002440681546091D02D027242046FD
:102EE00070BD103001F023F92860F8E7FFB54568A0
:102EF000002481B01F46164610350EE0284601F02A
:102F0000E3F80028FAD1284601F082F80178029807
:102F10000155284601F0E2F8641CB442EEDB002FB4
:102F200000D03E60002005B0F0BD70B51C461546CF
:102F3000406801F07BF9002804D0002C00D0256007
:102F4000002070BD002C01D0002020600020C04374
:102F500070BD000010B50D4C022220210A550C490D
:102F6000A160002020732046402210300123A11AC6
:102F700001F07AF822460748074900F023FFA068CD
:102F80000068016820221143016010BD1403002075
:102F90004001002020000020E844000813B524214F
:102FA0004843074944182046103001A901F0A4F80D
:102FB000203421780120034A890050501CBD0000B4
:102FC000140300204403002070B5064E054600247B
:102FD000E000801900F060F92855641C032CF7DB31
:102FE00070BD0000F844000810B5044600F061FD13
:102FF000A18800222068FEF70CF9094800F06AFD5C
:10300000A18801222068FEF704F90F2000F062FD7C
:103010002046FDF7B5FF002800D0012010BD0000BC
:10302000EE02000070B5002504462E46204600F052
:1030300040FDA18800222068FEF7EBF8022000F096
:1030400049FDA18801222068FEF7E3F8204600F040
:103050001FFD082000F03EFD6D08A1882068FEF7E6
:10306000D3F8002801D0802005433C2000F032FD39
:10307000204600F01EFDA18801222068FEF7C9F855
:10308000761CF6B2082ED1D3284670BD70B5054621
:10309000FFF7AAFFCC21284600F026F84421284655
:1030A00000F022F8FEF7BCF804462846FFF7BAFF06
:1030B000FF2804D0FEF7B4F8001BC828F5D928462D
:1030C000FFF792FFCC21284600F00EF8BE212846DB
:1030D00000F00AF82846FFF7A5FF04462846FFF748
:1030E000A1FF0002204370BD70B50E46044600F0FB
:1030F000E0FC0025A18800222068FEF78AF8022063
:1031000000F0E8FCF207D20FA1882068FEF781F8F2
:103110003C2000F0DFFCA18801222068FEF779F84E
:103120006D1C7608EDB2082DE4D370BD10B50446D1
:10313000032804D304A21A210CA000F02FFF0020C2
:103140000F4AA100505010BD6576656E74203C207A
:1031500073737A5F61727261795F73697A652867E8
:103160005F6576656E747329000000002E2E5C7515
:103170007365725C7372635C6576656E742E630052
:103180004403002010B50446032804D305A22721D8
:1031900009A000F003FF0D48A1004058002800D00E
:1031A000804710BD6576656E74203C206B45766562
:1031B0006E7449444D6178002E2E5C757365725CA7
:1031C0007372635C6576656E742E6300380300204D
:1031D00010B50446032804D305A21E210DA000F05B
:1031E000DDFE1149A0000858012800D0002010BDC4
:1031F0006576656E74203C2073737A5F61727261CC
:10320000795F73697A6528675F6576656E7473297F
:10321000000000002E2E5C757365725C7372635C37
:103220006576656E742E63004403002070B50D460C
:103230000446032804D304A2232108A000F0AEFE14
:103240000B49A0000D5070BD6576656E74203C2062
:103250006B4576656E7449444D6178002E2E5C7521
:103260007365725C7372635C6576656E742E630061
:103270003803002008B5694608700A230122024875
:10328000FEF708FE002008BD400100200149C000F3
:10329000085870477000002010B504468188006807
:1032A000FDF7B2FFA179884201D1012010BD0020B5
:1032B00010BD00000249C0004018007970470000AE
:1032C0007000002010B500210C4A084600F066FA94
:1032D0000B4A0121002000F061FA084A0021012078
:1032E00000F05CFA0121064A084600F057FA054A48
:1032F0000021022000F052FA10BD0000E93400085D
:1033000001350008193A0008F8B50E4604460428AD
:1033100001D2022E04D3164A164917A000F03EFE31
:103320001A4D002028700120687028461030076868
:1033300017480C214C432418002F04D0A17A607A3E
:1033400000233246B847B00022586878002804D0DD
:10335000002A02D0A17A607A90470C481030476862
:10336000002F04D0A17A607A2B783246B847F8BD96
:10337000944700080B0200002E2E5C757365725C8A
:103380007372635C6B65792E630000002800002077
:10339000A4030020FFB581B001980D46032801D297
:1033A000032D05D3FF211FA2CD3128A000F0F6FD8B
:1033B0002B4C0020207001272046677008300668DB
:1033C000002E04D000222946049B0198B0470198A2
:1033D0001C21484323494018A90046586178002918
:1033E00013D0002E11D0012D0BD00399002901D04C
:1033F00027700AE0807D002803D000F00DF9012835
:1034000003DC277004990198B047154808304668D6
:10341000002E04D022782946049B0198B04705B0BD
:10342000F0BD00006B6579203C206B4B6579494409
:103430004D6178202626206D7367203C206B4B65FC
:10344000794576656E744D61780000002E2E5C75AE
:103450007365725C7372635C6B65792E6300000048
:10346000280000205003002010B55421084800F027
:1034700091FD07483021543000F08CFD08210548AB
:1034800000F088FD0449002000F010FF10BD00008E
:1034900050030020300000208137000870B5002460
:1034A0000546032805D3FF2106A2503109A000F0EC
:1034B00075FD284600F0D2F9002800D001242046EE
:1034C00070BD00006B6579203C206B4B65794944E9
:1034D0004D6178002E2E5C757365725C7372635C4F
:1034E0006B65792E6300000010B500F099FE03496A
:1034F00008611421022000F0F9FE10BD40000020F8
:1035000038B5022000F000FF094C206900F03EFEB3
:10351000656801466D1C6560A0684218A260E0689D
:103520004318E36003480095FCF7F0FE38BD000047
:103530004000002000480008F3B581B00646002492
:1035400000F06AF802283DD10C2027464743214865
:103550003D18287A00281FD0687AB04204D1A87A92
:10356000FFF79CFF002807D1A87AB04214D1687AEF
:10357000FFF794FF00280FD0042C05D3972116A243
:10358000890020A000F00AFD0C202146414311488B
:103590004158002908D103E0641C042CD4D311E065
:1035A0003818406800280DD00298002809DC002354
:1035B000F0B201221946FFF7EDFE00212046FFF789
:1035C000A3FEFEBD0022F0B21146029BFFF7E2FE11
:1035D000FEBD0000A403002069203C2073737A5FC5
:1035E00061727261795F73697A6528675F636F6D75
:1035F00062696E6174696F6E5F6B65795F696E6633
:103600006F7329002E2E5C757365725C7372635C38
:103610006B65792E6300000070B500252C46E0B282
:10362000FFF73CFF002800D06D1C641C032CF6DB68
:10363000284670BDF8B506460023C0B21A460121DF
:10364000FFF7A8FE0F4F00240C206043C519287A0D
:10365000002813D0687AB04204D1A87AFFF71EFF81
:10366000002807D1A87AB04208D1687AFFF716FF80
:10367000002803D001212046FFF746FE641C042CDD
:10368000E2D3F8BDA4030020F8B507466846FFF76B
:103690009BFC00252E461C212A464A432F4968469A
:1036A0005418182140576156884206D0E17DC91947
:1036B00049B2E1750A2901DB2076E675207E0128F2
:1036C0002BD0E660E8B200F0C9F8617E81420BD0F1
:1036D000607600282CD0012830D0022835D020A2D6
:1036E000204921A000F05AFC607E022811D310204E
:1036F000205E00280DDDA18AC91909B2A18281428C
:1037000007DBA682608A401C01B261822846FFF76F
:1037100013FF6D1C032DBEDBF8BDE068002805D04B
:10372000C019E060CED51548E060CBE70A20FBE782
:10373000A68266822846FFF77DFFD5E7A6826682CD
:1037400000212846FFF7F8FECEE7A6820023668216
:10375000E8B21A460221FFF71DFEC5E7500300201C
:1037600000000000DF0200002E2E5C757365725CA5
:103770007372635C6B65792E63000000FFFFFF7F4F
:1037800010B5054C606800F001FDFFF77DFF00F00B
:1037900047FD606010BD00002800002070B516468F
:1037A0000D460446032801D2032D04D307A2A62107
:1037B00010A000F0F3FB1C20134960434018A9003F
:1037C00046500021204600F021F870BD6B6579203D
:1037D0003C206B4B657949444D6178202626206555
:1037E00076656E74203C206B4B65794576656E740A
:1037F0004D6178002E2E5C757365725C7372635C2C
:103800006B65792E63000000500300201C2250439A
:10381000034A8018018200218182418270470000A2
:103820005003002010B500F0FBFC0A49486000205E
:10383000094902461C2343435B18401CDA750328E0
:10384000F8DB0221002000F051FD0220FFF71CFFF1
:1038500010BD000028000020500300201C21484318
:1038600007494018C068FF21F531884201DB02207A
:103870007047002801DD01207047002070470000DC
:1038800050030020FDF7C6FDFEF774FCFEF764FB55
:10389000FEF7D0FBFEF7FAFBFEF724FCFEF73EFC3A
:1038A00000F01AF8FEE770B500252C46E0B2FFF7ED
:1038B0008FFC002806D0E0B2FFF738FCE0B2FFF73B
:1038C00061FC0125641C032CF0DB284670BD10B59B
:1038D0000020FFF785FA10BDFFF73CFB0020FFF743
:1038E000D3FA01460020FFF799FA00F077F8124961
:1038F0000020FFF79BFC11490220FFF797FCFFF720
:10390000B3FDFEF7A9FFFFF78DFFFFF7DBFC0C49C6
:10391000022000F0CBFC00F001FD054600F010FD98
:10392000044600F003FD01462B46224605A0FCF7A5
:10393000EDFCFFF7B8FFFCE74D420008CF38000868
:103940006D2D0008257320706F776572206F6E0AE9
:1039500025730A25730A000010B504460079022871
:1039600004D307A22E210DA000F018FB20798100BE
:103970000F484158002901D02068884710BD000039
:103980006F6E655F6D73672D3E6D73675F69642051
:103990003C206B4D736749444D6178002E2E5C7559
:1039A0007365725C7372635C6D73672E63000000F5
:1039B0005800002010B5084C07E0206800F018FB04
:1039C000FFF7CAFF206800F01FFB206800F018FB1B
:1039D0000028F2D010BD00005400002010B50748A8
:1039E000082314220449006800F006FB0449012062
:1039F000FFF71CFC10BD0000D40300205400002081
:103A0000B5390008034910B5C0004018FFF73EFB68
:103A100010BD0000D844000810B50020074C024635
:103A200060600121A06049030548FDF7F2FB05A095
:103A30006368E268A168FCF769FC10BD40000020E3
:103A4000000400480A63757272656E745F74696D74
:103A5000653A256C646D732C20746F74616C5F74AF
:103A6000696D653A256C646D730A63757474696E6B
:103A70006720636F756E7465723A256C640A000086
:103A8000024AC000801801717047000070000020D9
:103A900010B586B0044614216846FCF7C2FEA08823
:103AA00000900020019069462068FDF7DBFA06B01F
:103AB00010BD10B586B0044614216846FCF7B1FE6F
:103AC000A08800900120019069462068FDF7CAFA9D
:103AD00006B010BD10B50521001DFCF7F3FE04462D
:103AE000054804490068FCF7E3FE444300BF641E38
:103AF000FCD210BD40420F000C000020F8B50E466D
:103B0000040005D1FF212BA2A5312DA000F046FA1B
:103B10000025ED43002E4BDB0220205EB04247DD46
:103B20000020205E002843DD3146204600F0E0F80A
:103B3000002805D1FF2128A2A93121A000F02EFAEA
:103B40002088012809D00421615E2046B14207D1B6
:103B500000F0E3F8A080054627E00020A08024E0E4
:103B600000F015F9B04220D0204600F010F90146CF
:103B7000204600F003F935B207462E4613E03146E1
:103B8000204600F0CAF80C22A25EA16850430B1830
:103B90001046704308181946FCF7E4FD31462046EC
:103BA00000F0BBF80646BE42E9D12088401E2080C6
:103BB0002846F8BD636F6E7461696E65720000001F
:103BC0002E2E5C757365725C7372635C73737A5FBF
:103BD00064657175652E63004D5F69735F6E6F6418
:103BE000655F6F665F696E6465785F76616C696456
:103BF00028636F6E7461696E65722C20706F732913
:103C00000000000010B5040004D109A2A6210BA0F9
:103C100000F0C4F90020205E002807DD04200C21FC
:103C2000205E615E4843A168401810BD002010BDB1
:103C3000636F6E7461696E65720000002E2E5C7594
:103C40007365725C7372635C73737A5F64657175BC
:103C5000652E6300F8B51E4617460D46040001D0D8
:103C6000002D04D105A24E210AA000F097F90020F2
:103C700020806780A080A681A560F8BD636F6E7408
:103C800061696E657220262620705F6E6F646573B1
:103C9000000000002E2E5C757365725C7372635CAD
:103CA00073737A5F64657175652E630010B50400E7
:103CB00004D106A28B2108A000F070F90020205E3C
:103CC000002801DC012010BD002010BD636F6E7460
:103CD00061696E65720000002E2E5C757365725C02
:103CE0007372635C73737A5F64657175652E6300CC
:103CF00030B5002200290EDB0224045F8C420ADD6D
:103D0000835E002B07DD0425455F481B00D5201886
:103D1000834200DD0122104630BD0246491C08B234
:103D20000221515E814201DC401A00B2704700005E
:103D300010B5040005D1FF2107A2663109A000F0EB
:103D40002DF90020205E002804DD0421615E20465C
:103D5000FFF7D4FE10BD0000636F6E7461696E657D
:103D6000720000002E2E5C757365725C7372635C6A
:103D700073737A5F64657175652E63000246491E30
:103D800008B2002802DA5188081800B270470146CC
:103D900080880A8880180222401E8A5E00B2824211
:103DA00001DC801A00B2704708B50122694600F0B4
:103DB0002BF8002802D00020C04308BD68460078D8
:103DC00008BD000070B515460E46040004D106A2D9
:103DD000102107A000F0E2F80821204600F0DAF8F0
:103DE0002660656070BD000066696C6500000000BB
:103DF0002E2E5C757365725C7372635C73737A5F8D
:103E000066696C652E63000010B5002300F002F8AF
:103E100010BD0000FFB581B01E461746040005D056
:103E20002068002802D04068002804D106A224217E
:103E30000FA000F0B3F82068334645683A462046A4
:103E40000299A84705B0F0BD66696C65202626205A
:103E500066696C652D3E6465762026262066696C51
:103E6000652D3E6465762D3E726561645F666E0009
:103E70002E2E5C757365725C7372635C73737A5F0C
:103E800066696C652E63000008B5002100916A46E2
:103E9000091F00F047F8002801D0002008BD009855
:103EA00008BD10B5002300F001F810BDFFB581B0CA
:103EB0001E461746040005D02068002802D08068FE
:103EC000002804D106A21B2110A000F067F820688A
:103ED000334685683A4620460299A84705B0F0BDAA
:103EE00066696C652026262066696C652D3E6465D2
:103EF000762026262066696C652D3E6465762D3E0B
:103F000077726974655F666E000000002E2E5C7526
:103F10007365725C7372635C73737A5F66696C65F8
:103F20002E63000070B515460E46040005D02068CB
:103F3000002802D0C068002804D106A23C210FA0AE
:103F400000F02CF820682A46C3683146204698477E
:103F500070BD000066696C652026262066696C6568
:103F60002D3E64657620262666696C652D3E646567
:103F7000762D3E63746C5F666E0000002E2E5C75BD
:103F80007365725C7372635C73737A5F66696C6588
:103F90002E63000010B5FCF742FC10BD13460A4624
:103FA000014602A0FCF7B2F9FCF730FB25733A2575
:103FB00064202573202D2D20417373657274204673
:103FC00061696C0A0000000013460A46014602A01F
:103FD000FCF79CF9FCF71AFB25733A25642025733E
:103FE000202D2D20436865636B204661696C0A00B3
:103FF00010B5FFF707FE10BD10B5FFF72BFE10BD83
:1040000010B5FFF753FE10BD10B5FFF791FE10BDC0
:1040100010B5040004D109A242210BA0FFF7BEFF96
:1040200002200421205E615E884205D00C21615E81
:104030004843A168401810BD002010BD636F6E7426
:1040400061696E65720000002E2E5C757365725C8E
:104050007372635C73737A5F736166655F717565B4
:1040600075652E6300000000F8B51E4617460D4624
:10407000040001D0002D04D105A214210AA0FFF7ED
:104080008DFF278000206080A080A681A560F8BDFC
:10409000636F6E7461696E657220262620705F6E94
:1040A0006F646573000000002E2E5C757365725C92
:1040B0007372635C73737A5F736166655F71756554
:1040C00075652E630000000002210422415E825EBD
:1040D000914201D101207047002070470221042243
:1040E000415E825E914206D00022825E491C8A4275
:1040F00000DC00214180704770B504460420205E3A
:104100000022A25E451CAA4200DC00250222A25E1B
:10411000AA4202D10020C04370BD0C22A25EA36857
:104120005043C018FCF71EFBA580002070BD01465F
:1041300004200222085E8A5E801A02D500228A5E6E
:1041400010187047FFB581B0040003D000252E463B
:104150002F4612E0002005B0F0BD0298FCF760FA8F
:10416000002802D02770002606E0002E04D1A90006
:104170000398012644506D1C641C2178002902D04C
:1041800004988542E9DB2846E5E7000000B50249CE
:10419000096800F003F800BD60000020814201DBE7
:1041A000081A7047024A101A4018401C7047000055
:1041B000FFFFFF7F0649074A0B68D21A824202DAE4
:1041C000801A401E00E018180860012088607047BF
:1041D00060000020FFFFFF7F401A0549884202D39C
:1041E0004942884201DA01207047002070470000F0
:1041F000FFFFFF3F014600B50248006800F004F8E9
:1042000000BD000060000020044A121A8A4202DA4F
:10421000881A401E7047401870470000FFFFFF7F5C
:1042200001480068704700006000002010B5037B63
:104230000024002B08D17D2392B28068DB00FDF7BB
:1042400029FE002800D00124204610BD10B5FF2013
:1042500000F002F810BD0000F1B5FFF7E1FF124ECB
:104260000746002420018519297B002918D03158E0
:104270003846FFF7B1FF002812D0A87B009908420A
:104280000ED0687B002804D0E0B2696800F02EF8F8
:1042900002E0E0B200F038F8A868002800D08047BB
:1042A000641C052CDEDBF8BD8404002000B501226F
:1042B00000F002F800BD00000301024818188160F8
:1042C000827370478404002010B504460846FFF747
:1042D00091FF02460448210142500022081842730F
:1042E0000121017310BD00008404002070B50C464C
:1042F0000546FFF7E9FF034829010818012144603A
:10430000417370BD8404002002010348002110188D
:104310000173417370470000840400200048704717
:1043200038450008004870471045000800A0704755
:104330006375745F74696D696E675F74657374002B
:10434000004870472045000810B500290AD00878B9
:10435000002807D005487844FCF766FA002801D009
:10436000002010BD0248784410BD00005A0500002E
:104370005205000070B5420064414B005C41120ED2
:1043800039D01B0E38D0FF2A3CD0FF2B3AD0400248
:104390004902400A490A060045184E43000A090A24
:1043A000D2184843ED017F3A0104731A4019190CE1
:1043B0004318990F04D001215B0849075B1A521C6E
:1043C000D80904D3401CF50301D19D0607D0FF2A6C
:1043D00008D2D50506D0E4072043401970BD012559
:1043E000A843F4E7002A01DCE00770BD2402FF20A7
:1043F0002043C00570BD1B0EFF2A03D0FF2B01D048
:10440000E00770BDFF2645003606B54206D84D00D0
:10441000B54203D8D218FF2A00D0E7E7004870BDA4
:104420000000C07F02030405060708090A0B0C0DF3
:104430000E0F10100102030405060708090A0B0CF1
:104440000D0E0F1000000000000000000102030428
:104450000607080900000000010203040000000034
:1044600050470008BD27000840470008684700087B
:104470004D270008E845000860470008592B000850
:10448000A845000870470008D12600089446000897
:10449000804700086926000844460008F8450008DF
:1044A000812800081446000858470008152B00080A
:1044B0000046000834460008012C000800000000F7
:1044C00038470008312C00082C47000890470008A6
:1044D000000000000000000000080048008000000C
:1044E000000800480040000000000000ED2E000819
:1044F0002B2F0008D12E000800000048010000000A
:104500000000004802000000000400480080000095
:10451000010000000000000000000000000000009A
:104520005665723A20312E302E302E3000000000B9
:10453000000000000000000041707220313920327C
:104540003032332C2031353A31383A3432000000E1
:10455000000000000400000800000000000000024D
:1045600000010000108182838485868788898B8C76
:104570008D8E8F919293959697999A9C9D9FA0A2CC
:10458000A3A5A7A8AAACAEB0B2B3B5B7B9BCBEC01C
:10459000C2C5C7C9CCCED1D4D7D9DCDFE2E6E9ECBD
:1045A000F0F3F7FAFE000000726570656174206C2C
:1045B00061737420636D6420656163682074696D44
:1045C000652C20652E672E20726570656174205BF6
:1045D00074696D655F6D735D2C20726570656174C3
:1045E00020323030300000006578697420636D64DB
:1045F000206D6F64650000006D6F64756C65000070
:10460000726561642074656D706572617475726540
:104610000000000073686F7720616C6C206D6F6420
:10462000756C65206F757470757420737461746532
:1046300000000000746573745F7761746368646F71
:104640006700000064697361626C65206D6F64755A
:104650006C652773206F75747075742E20652E67D6
:104660002E2064697361626C655F6F757470757418
:10467000205B6D6F64756C655F69645D2C20646997
:104680007361626C655F6F757470757420616C6CBA
:1046900000000000656E61626C65206D6F64756C72
:1046A000652773206F75747075742E20652E672EC4
:1046B00020656E61626C655F6F7574707574205BE8
:1046C0006D6F64756C655F6E616D655D2C20656EE8
:1046D00061626C655F6F757470757420616C6C0AD3
:1046E0000909206D6F64756C655F6E616D653A20B8
:1046F000636F6D6D6F6E2C20696E667573696F6E7A
:104700005F6D6F6E69746F722C206D6F746F720ABB
:104710000909206D6F746F725F6D6F6E69746F72CF
:104720002C2073637265656E0000000073686F77FC
:104730002073797374656D2076657273696F6E008E
:1047400073686F7720636D6420696E666F00000088
:1047500068656C700000000074656D7000000000FA
:10476000726570656174000065786974000000000E
:10477000656E61626C655F6F7574707574000000C2
:1047800064697361626C655F6F7574707574000045
:1047900000000000636F6D62696E6174696F6E5F27
:1047A0006B65795F696E646578203E3D2030202618
:1047B0002620636F6D62696E6174696F6E5F6B65F1
:1047C000795F696E646578203C204B45595F434FA3
:1047D0004D42494E4154494F4E5F48414E444C452D
:1047E000525F4D4158202626206D7367203C206B78
:1047F0004B65794576656E74486F6C640000000007
:104800000A6B65792072656C65617365642C207430
:10481000696D653A256C646D730A63757272656EB5
:10482000745F74696D653A256C646D732C20746FC8
:1048300074616C5F74696D653A256C646D730A63AD
:10484000757474696E6720636F756E7465723A254E
:104850006C640A0073637265656E0000636F6D6D52
:104860006F6E0000696E667573696F6E5F6D6F6E57
:1048700069746F72000000006D6F746F725F6D6F0E
:104880006E69746F720000006D6F746F72000000CB
:10489000C04900080000002098000000F80000084F
:1048A000584A000898000020A00A000014010008DF
:1048B0001001000043000000F8FFFFFF00404040EF
:1048C00040404040404041414141414040404040E3
:1048D000404040404040404040404040400502028F
:1048E000020202020202020202020202022020204E
:1048F00020202020202020020202020202029090AA
:1049000090909090101010101010101010101010A7
:1049100010101010101010100202020202028888FB
:104920008888888808080808080808080808080807
:1049300008080808080808080202020240000000EF
:104940000000000000000000000000000000000067
:104950000000000000000000000000000000000057
:104960000000000000000000000000000000000047
:104970000000000000000000000000000000000037
:104980000000000000000000000000000000000027
:104990000000000000000000000000000000000017
:1049A0000000000000000000000000000000000007
:1049B00000000000000000000000000000000000F7
:1049C00001000000040000000000000000127A0056
:1049D00000000000000000000000000000000000D7
:1049E00000000000000000000000000000000000C7
:1049F00000000000000000000000000000000000B7
:104A000000000000000000000000000000000000A6
:104A100000000000740400200000000000000000FE
:104A20000000000000000000000000000000000086
:104A30005C480008000000008848000800000000F2
:104A400078480008000000006448000800000000EA
:084A50005448000800000000BA
:04000005080000B53A
:00000001FF
