:020000040800F2
:10000000400B0020D1010008E9270008B7220008B2
:1000100000000000000000000000000000000000E0
:10002000000000000000000000000000ED270008B4
:100030000000000000000000EB270008F127000886
:10004000E301000800000000E3010008E3010008EC
:10005000E3010008E3010008E3010008E3010008F0
:1000600000000000E3010008E3010008E3010008CC
:10007000E3010008E3010008E301000800000000BC
:10008000E3010008E301000800000000E3010008AC
:10009000E3010008E3010008E3010008E3010008B0
:1000A000E3010008E3010008E3010008412C000817
:1000B000652C000800F002F800F05EF80CA030C8D3
:1000C000083824182D18A246671EAB4654465D46D4
:1000D000AC4201D100F050F87E460F3E0FCCB64640
:1000E0000126334200D0FB1AA246AB4633431847E1
:1000F0002859000048590000103A02D378C878C146
:10010000FAD8520701D330C830C101D504680C6059
:10011000704700000023002400250026103A01D378
:1001200078C1FBD8520700D330C100D50B607047AF
:1001300010B5642902D100F065F910BD752902D10E
:1001400000F060F910BD782902D100F091F910BDDE
:10015000732902D100F02EFE10BD002010BD1FB586
:1001600000F098FD04000020002105F0BDF8401CBF
:1001700060601FBD10B510BD00F000FF1146FFF715
:10018000EEFF04F083FA00F027FF03B4FFF7F2FF5D
:1001900003BC02F0B0FD000070B505460C461646E3
:1001A00002E00FCC0FC5103E102EFAD2082E02D35B
:1001B00003CC03C5083E042E07D301CC01C5361F6E
:1001C00003E021782970641C6D1C761EF9D270BD85
:1001D0000748804707480047FEE7FEE7FEE7FEE7DF
:1001E000FEE7FEE704480549054A064B7047000054
:1001F00081280008B500000840050020400B0020C1
:1002000040070020400700207047000010B500F0B4
:1002100041FD001D10BD00BFD1500000FEB50546D8
:1002200010460C46184373D0AE468C460020AD1ADB
:1002300001469C4167D36646002701243D46B61A15
:100240009D4102D313463A462124654676462F0443
:10025000360C3E432D0CB61A9D4104D3150C1B04DD
:100260002B4312041034654676462F06360A3E4369
:100270002D0AB61A9D4104D3150E1B022B43120200
:100280000834654676462F0736093E432D09B61ACF
:100290009D4104D3150F1B012B431201241D6546FC
:1002A0007646AF07B6083E43AD08B61A9D4104D363
:1002B000950F9B002B439200A41C65467646EF07E2
:1002C00076083E436D08B61A9D411AD392185B41D9
:1002D000641C16E00018764665464941B71A9D41F0
:1002E0000191009009D36046B11A98418E46844628
:1002F000009801990025401C6941DD0752082A43F6
:100300005B08641EE6D57246634603B0F0BDFFE7A6
:1003100000200146C046C0462A462346F5E70000B5
:100320000FB4054910B503AA029800F047FD10BCB0
:1003300008BC04B018470000740000200FB41CB5BE
:10034000074B06AA7B4469460090059800F007FD1C
:100350000020694600F016FD1CBC08BC04B018471C
:100360003D0A000070B5044685690068C10601D5E4
:10037000302600E02026C00707D070BD62683046F6
:10038000A1689047206A401C20626D1EF6D570BDA2
:1003900070B5044685690078C00707D170BD6268F2
:1003A000A16820209047206A401C20626D1EF6D56F
:1003B00070BD70B50C460546012A05D02878800628
:1003C00000D5EA69002302E0012305E05B1C9342AB
:1003D00002D2E05C0028F9D1A869E618C01AA86129
:1003E000286AC01828622846FFF7BCFF04E06A6844
:1003F0002078A968641C9047B442F8D32846FFF7D8
:10040000C7FF70BDF7B5002575291068009914A6BF
:1004100011D0C046C046002802DA404211A608E0CA
:10042000009909688A0701D50FA602E0490704D59B
:100430000EA6012501E0C046C046009F00242437D7
:1004400004E000F00DFD30313955641C0028F8D16E
:100450002B4632462146009800F024FCFEBD0000E9
:10046000000000002D0000002B0000002000000014
:1004700070B504460D4621461068C046C046218826
:10048000090502D50F4A7A4402E00E4A7A440E3238
:1004900023460021243305E006070009360F965D48
:1004A0005E54491C0028F7D120780023000705D5A9
:1004B000702D03D0002901D002231132204600F014
:1004C000F1FB70BD3E510000F3B50446002081B041
:1004D00020622046E1688847002872D0252802D093
:1004E0006268A168ABE0594F00267F442046E1686E
:1004F00088472028054608DB312D06D27819203898
:100500000078002801D00643F0E7B00701D50420A9
:1005100086430020E0610746A0612A2D0AD02846C4
:1005200002F0E2FB002827D0B8000019303D00900F
:10053000856119E00298BA00121902C8916102900F
:100540002046E1688847012F054617D1E069002859
:100550001FDA202086431CE000980A218069484366
:1005600000994019303888612046E168884705467F
:1005700002F0BAFB0028EFD1012F0AD02E2D08D1AE
:100580002046E16888470546202006437F1C022F4D
:10059000C3DBA069002803DA4042A06101200643C2
:1005A000F00701D0102086436C2D0BD0682D09D0A8
:1005B0004C2D3CD06A2D38D0742D38D07A2D36D0C1
:1005C00016E040E0E1682F4620468847B8420546DD
:1005D00009D16C2F29D001208002E1680643204612
:1005E0008847054604E06C2F1DD0FF2001300643EC
:1005F000002D28D028464138192803D80120C002F0
:1006000006432035204626602946029A1646FFF703
:100610008FFD002810D001280BD0F61DF008C00077
:100620000830029055E74020E1E78020D5E7002020
:10063000D3E7361D02964CE762682846A1689047CA
:10064000206A401C44E7206AFEBD00000251000001
:1006500070B5064600F022FB0468054630460A22C3
:10066000002100F0BFFB2C6070BD10B503F064FBEF
:1006700010BD000010B5044603E003F05DFB401C14
:1006800008D020780549641C0028F6D10A2003F020
:1006900053FB10BD0020C04310BD000074000020BB
:1006A00010B5002000F0D6FBFFF764FD012002F03A
:1006B00022FB10BD401ECAB24178401C8A4202D0C3
:1006C0000029F9D100207047034670B502460B435C
:1006D0009B070FD10E4CE60100E008C208C91D1BA4
:1006E0009D433542F9D0D9B21170521C00290DD06A
:1006F0001B0AF8E70B78491C1370521C002B05D01D
:100700000B78491C1370521C002BF3D170BD0000F4
:100710000101010130B5441C03E00178401C0029AF
:100720000DD08107F9D10B4BDD0104C8D11A9143DB
:100730002940FAD0001B0A0603D0C01E30BD001BA2
:1007400030BD0A0401D0801E30BD0902FCD0401E1D
:1007500030BD0000010101010346F0B50B439B07CA
:100760002DD1244DEF01042A29D308C810C95E1BDE
:100770009E43121F3E4017D0D8B2E1B2401A310654
:10078000014310D198B2A1B2401A310401430AD1F9
:1007900018022102000A090A401A3102014302D15B
:1007A000180E210E401AF0BDA342DCD018BA21BAAF
:1007B000884201D90120F0BD0020C043F0BD002ACD
:1007C00001D10020F0BD03780C78401C491C002B9F
:1007D0000DD0A3420BD1521E09D003780C78401CD7
:1007E000491C002B03D0A34201D1521EEBD1181B90
:1007F000F0BD000001010101F8B5042A2CD38307E4
:1008000012D00B78491C0370401C521E83070BD07A
:100810000B78491C0370401C521E830704D00B78D0
:10082000491C0370401C521E8B079B0F05D0C91A30
:10083000DF002023DE1B08C90AE0FFF7ADFCF8BD8E
:100840001D4608C9FD401C46B4402C4310C0121F71
:10085000042AF5D2F308C91A521EF0D40B78491CA9
:100860000370401C521EEAD40B78491C0370401CD4
:10087000012AE4D409780170F8BD01E004C0091F21
:100880000429FBD28B0701D50280801CC90700D048
:100890000270704700290BD0C30702D00270401CC1
:1008A000491E022904D3830702D50280801C891EB9
:1008B000E3E70022EEE70022DFE70000024670B522
:1008C0000A4392072AD11E4DEE0104C808C9541BE1
:1008D0009443344017D0D0B2D9B2401A2106014314
:1008E00010D190B299B2401A210401430AD11002EA
:1008F0001902000A090A401A2102014302D1100E0E
:10090000190E401A70BD9A42DFD010BA19BA884247
:1009100001D9012070BD0020C04370BD02780B7862
:10092000401C491C002A09D09A4207D102780B7852
:10093000401C491C002A01D09A42EFD0D01A70BD49
:1009400001010101002203098B422CD3030A8B42CF
:1009500011D300239C464EE003460B433CD40022B7
:1009600043088B4231D303098B421CD3030A8B42C9
:1009700001D394463FE0C3098B4201D3CB01C01A97
:10098000524183098B4201D38B01C01A5241430962
:100990008B4201D34B01C01A524103098B4201D350
:1009A0000B01C01A5241C3088B4201D3CB00C01ABD
:1009B000524183088B4201D38B00C01A5241430835
:1009C0008B4201D34B00C01A5241411A00D201465A
:1009D0005241104670475DE0CA0F00D049420310F3
:1009E00000D34042534000229C4603098B422DD342
:1009F000030A8B4212D3FC22890112BA030A8B42EA
:100A00000CD3890192118B4208D3890192118B4238
:100A100004D389013AD0921100E08909C3098B42BD
:100A200001D3CB01C01A524183098B4201D38B0100
:100A3000C01A524143098B4201D34B01C01A5241A3
:100A400003098B4201D30B01C01A5241C3088B42E8
:100A500001D3CB00C01A524183088B4201D38B00D3
:100A6000C01A5241D9D243088B4201D34B00C01A5D
:100A70005241411A00D20146634652415B10104672
:100A800001D34042002B00D54942704763465B10BA
:100A900000D3404201B50020C046C04602BD7047A9
:100AA00070477047F0B5FF252D04C609C209FF271E
:100AB00004462E400137CB093E4348402A402B4094
:100AC0000746002A6BD0002B69D0AA4267D0AB4200
:100AD00065D0002800DA32460125ED0529432C4374
:100AE00009022002090AD21A4B0C7F24E31A434C54
:100AF000000A7C44E35C7D242404121914145B0076
:100B0000A218884201D3521C00E0400049420C4622
:100B10005C4324115C43DB016415E318040A5C4365
:100B2000C502200D0C4644436419250A5D43230386
:100B3000EC0C0D46654300030019EB184C42A34230
:100B400001D35B18401CD4052018002B07D05B0094
:100B5000C91804D3401C002901D1400840003F219E
:100B600089048A4209D3002A08DC1106090F04D03F
:100B7000032149074018C00FC007F0BD0122410002
:100B8000120689187F2252069142F6D205214907A2
:100B9000C84201D59010F0BDFF20C005F0BD002F68
:100BA00000DA32461648AA4207D2AB4205D21902F1
:100BB000090E17D0F80FC007F0BDFF2563002D0602
:100BC000AB42F9D84900A942F6D8AB4201D1A942BB
:100BD000F2D0A94201D1002101E061004908D0050D
:100BE0000843F0BD1102090EFBD0FF200243D005DF
:100BF000F0BD0A460146104654E700000B4B0000CA
:100C00000000C07F0102C21504D00123DB07194395
:100C1000002A0ADB9E239A1A02D40846D040704765
:100C2000FF2241001206914201D900207047C017EF
:100C3000C04370471F22030C02D10F2200041CD0B6
:100C4000030E01D10002083A030F01D10001121F67
:100C5000830F01D18000921E002801DB4000521E4C
:100C6000D2055118021251181922904004D3491C80
:100C7000002801D14908490008467047C10FC9073B
:100C800000D04042012292071143D3E70121890796
:100C9000D0E7704700487047FC04002000487047C8
:100CA000DC040020FFB504460D4681B024300090DE
:100CB0002168880604D51022E0699143216000E094
:100CC0000120A84201DD471B00E000270498A1692C
:100CD0007A191018081AA0612078C00602D420469C
:100CE000FFF740FB002608E003986268A168805D7A
:100CF0009047206A401C761C206204988642F3DBF1
:100D00002078C0060AD52046FFF72CFB06E0626873
:100D1000A16830209047206A401C206238467F1E20
:100D20000028F4DC07E000986268A168405D904705
:100D3000206A401C206228466D1E0028F3DC2046F5
:100D4000FFF726FB2078000602D5022005B0F0BD93
:100D50000120FBE701694A1C02610878704700B571
:100D60008FB00291002105910549019379440391C7
:100D7000114604906846FFF7A7FB0FB000BD0000C6
:100D8000E5FFFFFF0A681070521C0A60704710B53B
:100D90004369002B02D0C046C04601E0FFF709FBC3
:100DA000012010BD1278014624310A7000224A70D9
:100DB0000122ECE711680022D243E8E7084B70B546
:100DC0000D467B44FFF7CBFF0446284600F0B3F8FE
:100DD000002802D00020C04370BD204670BD000036
:100DE000732F0000F7B50F460026009C2578641C81
:100DF000002D05D0FFF70AFA0068405DC007F5D165
:100E00002B2D02D02D2D18D0641E3946029A204673
:100E100000F03EF8002F04D03968A14201D10099BA
:100E200039607105022400290BDA4042002803DDF5
:100E3000FFF734FF0460A007FEBD012080020643D7
:100E4000E3E70028F8DAFFF729FF04600048FEBD59
:100E5000FFFFFF7F10B500F079F800F070F810BDCB
:100E600001468008081A02091018020A1018020C1C
:100E70001018C008820012185200891A01E0401CA4
:100E80000A390A29FBD2704700487047DC04002069
:100E9000F7B5154682B00027029C2078641C0197A4
:100EA000302802D0002D15D015E020780127641CD1
:100EB000782804D0582802D0002D09D00BE0002D4E
:100EC00001D0102D07D1207800271025641C02E0E6
:100ED000082500E00A250026009610E00099012769
:100EE0006943081829467143020C80B200908E189D
:100EF0003804864201D3012001902078641C2946E1
:100F000000F05BF80028E9DA0398002805D0002FEC
:100F100001D0641E00E0029C04600198002806D005
:100F2000FFF7BCFE02210160C81E05B0F0BD0099AC
:100F300030040843F9E7C06880210840704710B5C5
:100F4000002801D001F0D7FE10BD000010B500212F
:100F500002A000F049F8012010BD000053494741AC
:100F60004252543A2041626E6F726D616C2074651A
:100F7000726D696E6174696F6E0000007546FFF7EF
:100F800083FFAE46050069465346C008C00085464B
:100F900018B020B5FFF726F960BC00274908B6460F
:100FA0000026C0C5C0C5C0C5C0C5C0C5C0C5C0C578
:100FB000C0C5403D49008D4670473A2800D23038C0
:100FC000202302469A43412A01D3104637388842EB
:100FD00001D30020C043704710B50446C046C04648
:100FE0002046FFF7D2F810BD70B505460C460A2022
:100FF00000E06D1C01F080FE002D06D0287800284E
:10100000F7D102E0641C01F077FE002C02D02078BA
:101010000028F7D10A2001F06FFE70BD70B50546BB
:10102000002403F09FFC04E0042003F0CBFC641CCC
:10103000E4B2A988286800F047F9002802D0C82C3B
:10104000F2D310E0C82C0ED2002404E0042003F0F8
:10105000B9FC641CE4B2A988286800F035F90028BE
:1010600003D0F02C04D3012070BDF02CEED3FAE7AE
:10107000002070BD72B6FEE730B5014620314B78D6
:101080000022022B04D0042383630A70012030BDA8
:1010900003681C680E25AC431C6003681C68640868
:1010A00064001C600123056C1C46C06BAC404460AE
:1010B0004B700A70002030BD70B50024014620310D
:1010C0004A78022A03D004218163012416E00268D1
:1010D00013680E25AB431360026813685B085B005E
:1010E00013600122056C1346AB40C56B6B604A7000
:1010F00000220A70416B002900D08847204670BD4D
:1011000070B5044600F0ECF80546601C02D00448B7
:101110000078241800F0E4F8401BA042FAD370BD18
:1011200000000020F8B5002303240125BAE02E4674
:101130009E40B44632407CD00E79B607B60F012EE1
:1011400001D0022E17D186682746B6465E00B7400A
:1011500000967646BE43B646CF68009EB7407646B8
:101160003743876046686746BE430F79FF06FF0F27
:101170009F40374347600E79F643B6070ED0C668E6
:101180002746B4465E00B646B7406646BE43B44600
:101190008F687646B74066463743C7600E79B60714
:1011A000B60F022E14D1DE08B60036180096366A45
:1011B0005F07B446FE0E0F27B646B7406646BE43ED
:1011C000B4460F697646B74066463743009E37629D
:1011D00006682746B4465E00B646B7406646BE433C
:1011E0000F79B446BF07BF0F7646B7406646374310
:1011F00007604E68B603B60F53D02D4FBE692E431D
:10120000BE61BE699F08F607F60F2A4EBF00BE19E1
:101210000096B6680F27B4469E07360FB646B7400D
:101220006646BE430927FF06B446B84202D10027EE
:1012300010E036E0204FB84201D101270AE01F4FED
:10124000B84201D1022705E01D4FB84201D1032762
:1012500000E005277646B74066463743009EB760F4
:10126000184EB6684F689643FF0200D51643154FD7
:10127000BE60FE684F689643BF0200D51643114F0B
:10128000FE607E684F689643BF0300D516430D4F3E
:101290007E603E684F689643FF0300D51643094AB7
:1012A00016605B1C0A681646DE4000D03FE7F8BDBA
:1012B00000100240000001400004004800080048FF
:1012C000000C0048000401400069084000D00120E3
:1012D0007047002A01D08161704781627047000029
:1012E00001488068704700000000002070B5024689
:1012F00040325378202B1CD11378012B19D00123B5
:10130000137024245470046825689D432560046884
:1013100025681E03B5432560046825680D432560D4
:10132000006801681943016020205070002010708F
:1013300070BD022070BD70B5024640325378202B3C
:101340001BD11378012B18D001241470242353705F
:1013500003681D68A5431D6005682B680F263602CB
:10136000B343090219432960006801682143016001
:10137000202050700020107070BD022070BD000051
:1013800070B5040006D02546403568780026002850
:1013900002D005E0012070BD2E70204600F09AF9C1
:1013A00024206870206801684908490001600F2105
:1013B0006068090688432168086121688A680120FD
:1013C000C00382438A60E1680129A16808D0212214
:1013D0009202114322689160E168022902D005E07F
:1013E0000143F7E701212268C902516021684A6878
:1013F0000F4B1A434A602168CA688243CA60616918
:1014000020690843A169090208432168C860216A6C
:10141000E0690843216808602068016801221143DF
:1014200001606664202068702663AE70002070BD85
:1014300000800002FFB5054604464035687883B059
:10144000202875D10C98002814D00D98002811D0B0
:10145000287801286CD001202870FFF741FF07464B
:10146000012200901923D103204601F035F800280D
:1014700074D103E00120400260646FE022206870B4
:101480004020A870002666640C9860620D98608504
:1014900066630E980090019704A90EC9204600F0DB
:1014A000A5FF002801D02E7058E0618D3448FF2937
:1014B00005D9FF22228501231B06009006E0618DDD
:1014C00021850090208D0123C2B25B06204604993D
:1014D00000F0ECFF00970022042120460E9B00F054
:1014E000FBFF00283AD12068406A616A0870606A90
:1014F000401C6062208D401E81B22185608D401E9F
:101500006085608D00281FD000291DD10097002222
:10151000802120460E9B00F0DFFF00281ED1608D49
:10152000FF2806D9FF22228501231B06009607E02B
:1015300024E0608D20850096208D0123C2B25B06D9
:101540002046049900F0B2FF608D0028C2D13A46CF
:1015500020460E9900F0F1FF002802D0012007B0CC
:10156000F0BD20682021C16120684268054B1A4007
:1015700042606970AE702E700020F0E70220EEE746
:101580000024008000E800FEFFB505460446403513
:10159000687883B0202872D10C98002814D00D9858
:1015A000002811D02878012869D001202870FFF781
:1015B00097FE0746012200901923D103204600F030
:1015C0008BFF002871D103E00120400260646CE0D1
:1015D000212068704020A870002666640C98606224
:1015E0000D98608566630E980090019704A90EC956
:1015F000204600F02BFF002801D02E7055E0608DB2
:10160000FF2805D9FF22228501231B06009606E04C
:10161000608D20850096208D0123C2B25B06204696
:10162000049900F043FF3A4620460E9900F0B0FFBF
:1016300000283AD1606A216800788862606A401C9C
:101640006062608D401E6085208D401E80B22085C6
:10165000618D00291FD000281DD100970022802114
:1016600020460E9B00F038FF00281ED1608DFF2819
:1016700006D9FF22228501231B06009607E024E0FD
:10168000608D20850096208D0123C2B25B06204626
:10169000049900F00BFF608D0028C4D13A46204623
:1016A0000E9900F04AFF002802D0012007B0F0BDDB
:1016B00020682021C16120684268054B1A404260C1
:1016C0006970AE702E700020F0E70220EEE7000097
:1016D00000E800FEF0B587B0044614216846FFF725
:1016E000EAF81C4F2668012000211B4C80041222BE
:1016F00003230125BE4210D166690643666166690F
:1017000002AF06401802009001926AC7694613486A
:10171000FFF708FDE169680514E0114FBE4216D1DC
:10172000666906436661666902AF0640032080026F
:10173000009001926AC769460848FFF7F3FCE16927
:10174000012080050143E161E1690140059107B095
:10175000F0BD0000005400400010024000040048AA
:1017600000580040024881680278891881607047FB
:101770000000002010B506480168102211430160E6
:10178000032000F007F800F027F8002010BD00004B
:101790000020024070B504460D4D7D202978C00020
:1017A000FFF7D0F801460B480068FFF7CBF800F0D0
:1017B0002DFB002809D1042C07D200222146401E0F
:1017C00000F02AF800206C6070BD012070BD0000A0
:1017D000000000200C00002008B5084881690122A3
:1017E00011438161816911400091C26901040A437A
:1017F000C261C0690840009008BD000000100240AE
:10180000002805DBC106C90E012088400149086097
:101810007047000000E100E010B501F043FA10BD90
:10182000F8B505460068354CC00352D5E06900267E
:10183000C00007D4E16920040143E161E16901408E
:10184000012600912E480168C90510D4016882154F
:1018500011430160FFF744FD074604E0FFF740FD38
:10186000C01B642824D826480068C005F6D5206A25
:1018700003273F02384020D06968394081421CD09C
:10188000206A226AB843012109040A432262226ABB
:101890008A4322622062C0070FD0FFF721FD00902B
:1018A00008E0FFF71DFD0099411A1648814201D951
:1018B0000320F8BD206A8007F3D5206A6968B84321
:1018C00008432062002E04D0E16901200007814313
:1018D000E1612878C00705D0206BA96880088000E6
:1018E000084320632878800605D5206B10218843A3
:1018F000E968084320630020F8BD000000100240A2
:101900000070004088130000F8B50F46060059D05B
:101910003A4D2868C007C00FB84209D2286840086D
:101920004000384328602868C007C00FB84249D13A
:101930003068334C81070CD5400704D56068072117
:101940000902084360606068F0218843B168084379
:1019500060603078C00726D0706801280ED02168FA
:1019600002280ED0890700292CDA616889088900CD
:1019700001436160FFF7B4FC00900DE0216889032A
:10198000F1E78901EFE7FFF7ABFC0099411A1D4829
:10199000814201D90320F8BD60680C2108407168BC
:1019A00089008842EFD12868C007C00FB8420BD920
:1019B000286840084000384328602868C007C00FE6
:1019C000B84201D00120F8BD3078400706D56068E4
:1019D000072109028843F1680843606000F028F895
:1019E0006168094A0906090F515CC8400749086047
:1019F0000320FFF7CFFE0020F8BD000000200240CA
:101A000000100240881300004A5400080C00002017
:101A10000448054900684968044A4905490F515C72
:101A2000C84070470C000020001002405A540008C3
:101A300010B5104A51680C200B4603400E48042B89
:101A400017D0082B15D18B020C4C1B0FE45CD26A0B
:101A50000A4B1207120F10339A5CC90305D50023F5
:101A60001946FEF7DBFB214601E02046044901F060
:101A700001F910BD0010024000127A002A5400083B
:101A800000093D00FEB5040070D02078DC4DC00791
:101A90004AD068680007800F012807D068680007EF
:101AA000800F022809D16868C00306D52868800322
:101AB0003AD560680028E7D036E06168012914D083
:101AC00001208004002901D0052914D02A680121B1
:101AD00009048A432A6029688143296060680028D4
:101AE00016D0FFF7FDFB06460EE028680121090429
:101AF00008432860F2E7296801432960F5E7FFF70A
:101B0000EFFB801B64286ED828688003F7D50BE0B4
:101B1000FFF7E6FB064604E0FFF7E2FB801B6428C4
:101B2000F1D828688003F7D42078012680070028A0
:101B30003CDA68680007800F07D068680007800FEC
:101B4000022809D16868C00306D42868800716D522
:101B5000E06801280AD112E0E0680028286816D061
:101B600030432860FFF7BCFB074605E043E1FFF781
:101B7000B7FBC01B0228C6D828688007F7D528689D
:101B8000F82188432169C900084328600EE0400815
:101B900040002860FFF7A4FB074604E0FFF7A0FB26
:101BA000C01B0228AFD828688007F7D42078000728
:101BB00022D5E0690028686A0ED030436862FFF7DA
:101BC0008FFB074604E0FFF78BFBC01B02289AD867
:101BD000686A8007F7D50FE0400840006862FFF7A9
:101BE0007FFB074605E09DE0FFF77AFBC01B02285C
:101BF00089D8686A8007F7D420780427400700282E
:101C000060DA00200190E869C00008D4E969B806EC
:101C10000143E961E969014001200091019079489F
:101C20000168C90511D40168821511430160FFF7ED
:101C300057FB009005E0FFF753FB0099401A64281A
:101C400070D870480068C005F5D5A06801280AD092
:101C5000002801D0052810D0286A400840002862DA
:101C6000286AB84301E0286A30432862A068002847
:101C700012D0FFF735FB00900AE0286A384328624B
:101C8000F1E7FFF72DFB0099411A5F48814249D8DF
:101C9000286A8007F5D50DE0FFF722FB009006E0EB
:101CA000FFF71EFB0099411A574881423AD8286A2B
:101CB0008007F5D40198002804D0E96901200007C5
:101CC0008143E9612078C00635D5606901280CD0D0
:101CD000401D686B23D038436863686B4008400040
:101CE0006863FFF7FDFA064622E0686B38436863D5
:101CF000686B30436863FFF7F3FA064604E0FFF7CA
:101D0000EFFA801B02285BD8686B8007F7D5686BF9
:101D1000F8218843A169C900084368630BE0B84310
:101D20006863F4E74CE0FFF7DBFA801B022847D832
:101D3000686B8007F7D4206A00285ED069680907BD
:101D4000890F022942D0012636060228286805D0CC
:101D5000B0432860FFF7C4FA044633E0B04328607C
:101D6000FFF7BEFA074604E0FFF7BAFAC01B0228E5
:101D700026D828688001F7D4E86AE16A00090001E2
:101D80000843E862616AA06A084369683D22120458
:101D9000914308436860286830432860FFF7A0FA41
:101DA000044604E0FFF79CFA001B022808D82868C4
:101DB0008001F7D521E0FFF793FA001B022801D933
:101DC0000320FEBD28688001F5D416E00128F8D074
:101DD0006868E96A01221204636A02409A420AD1E1
:101DE0000907E26A090F914205D10F2189040840D1
:101DF000A16A884201D00120FEBD0020FEBD000086
:101E0000001002400070004088130000094910B51E
:101E1000401E884201D9012010BD074C606103219A
:101E2000081F00F03FFF0020A06107202061002074
:101E300010BD0000FFFFFF0000E000E070477047AA
:101E4000F8B502680446D069116893689E4D06464D
:101E50002E4025468035002E71D09C4FDE07F60FB0
:101E60000F4037437ED0C70706D0CF0504D50127E2
:101E700017626A683A436A60820708D5DA0706D0B3
:101E8000276802223A626A6804273A436A60420776
:101E900008D5DA0706D0236804221A626A6802238A
:101EA0001A436A60020709D520220A40324305D04E
:101EB000236808221A626B6813436B60020509D518
:101EC0004A0107D501222368D2021A626B682022D8
:101ED00013436B606A68002A39D0800606D58806ED
:101EE00004D5A16E002901D0204688476868216882
:101EF0008968490602D4282108422DD0204600F0E6
:101F000091FD21688868400622D5EFF310800122F8
:101F100082F310888A6840239A438A6080F310888D
:101F2000606F002814D06A494163606FFFF7C4F8FE
:101F300000280CD0606F416B08E000E012E08306DF
:101F400010D58B060ED5A16EA3E020468847F8BDBC
:101F50002046FFF774FFF8BD2046FFF770FF002012
:101F60006860F8BD236E012B7ED1C3067CD5CB06FD
:101F70007AD51023136222689068264640064036C0
:101F8000002848DA616F086840680004000CE8D057
:101F9000378B8742E5D970838869202834D0EFF3E6
:101FA0001080012181F3108811681F01B94311606D
:101FB00080F31088EFF31080012181F310882168ED
:101FC0008A68520852008A6080F31088EFF310800C
:101FD000012181F3108821688A684027BA438A600A
:101FE00080F310882020286000202066EFF3108006
:101FF000012181F3108821680A689A430A6080F3FE
:102000001088606FFFF738F802206066308B718BA4
:10201000401A81B234E0308B718B401A81B2708BE0
:1020200000289ED000299CD0EFF31080012686F373
:1020300010881668FF272137BE43166080F310888A
:10204000EFF31080012282F31088226896687608E8
:102050007600966080F3108820202860002020669B
:10206000A066EFF3108000E00EE0012282F31088FA
:10207000226815689D43156080F310880220606611
:102080002046FFF7DBFEF8BD030606D50B0604D598
:10209000E16E002900D058E7F8BD4006FCD548069F
:1020A000FAD52046EFF31081012383F310881468DA
:1020B00040239C43146081F310882021C1670021D4
:1020C000C16600F0F7F8F8BD0F0800002001000419
:1020D000112A000810B5040003D0E06F002802D0D8
:1020E00007E0012010BD002178200155204600F0B6
:1020F00027F82420E067206801684908490001604A
:10210000204600F0BFFC0128ECD0606A002802D015
:10211000204600F0B6FB206841680122D2029143BC
:1021200041602068816808229143816020680168CD
:10213000012211430160204600F008FC10BD0000A0
:10214000F0B587B0044614216846FEF7B4FB264F6D
:102150000121266800222548490402230324012581
:10216000BE421DD18769CE103743876187693740EA
:10217000059746690E434661406901930840059002
:102180006002009002AE34C609206946C006FEF720
:10219000C9FF002211461B20FFF73EFB1B201EE05B
:1021A000134FBE421DD1C6690E43C661C6690E40BB
:1021B000059646690E4346614069019308400590C3
:1021C0000C20009002AE34C609206946C006FEF716
:1021D000A9FF002211461C20FFF71EFB1C20FFF761
:1021E0000FFB07B0F0BD00000038014000100240B6
:1021F00000440040FFB50446C06F83B017460D464B
:10220000202802D0022007B0F0BD002D0BD0002FF7
:1022100009D00120A1680003814206D1206900286D
:1022200003D1E80701D00120EDE70021842001510E
:102230002120E067FFF754F82646403601903782A8
:1022400077820120A1680003814202D12069002821
:1022500002D02F46002511E000270FE00022802148
:10226000204600F0A7FC002815D1002F17D02168C8
:10227000387808857F1C708A401E7082708A019BA6
:10228000002806980090E9D100224021204600F065
:1022900091FC00280AD02020E0670320B3E72888BB
:1022A0002168C005C00D0885AD1CE4E72020E0676B
:1022B0000020A8E77047FEE701688A69D2439207C9
:1022C00001D400228A6200688169C943C90703D02A
:1022D000816901221143816170470000F7B504460E
:1022E000006882B0816900262746C9064037354616
:1022F0000092002945DA1021C16132E00398401CA8
:102300002FD0FEF7EDFF0099411A0398814201D8C2
:10231000002826D120684168012292031140BA7832
:102320008369DB431B0417D401239B03994213D019
:10233000202A11D0416819434160FEF7D1FF009077
:102340000AE0FEF7CDFF01460098081A192803D9C4
:1023500020200543012604E020688069C0438006F0
:10236000EFD420688069C043800602D5002EC5D016
:1023700004E0002E02D121682020C861042005431A
:10238000012621688869C20504D50122154312027D
:10239000CA610126410508D508210D43CA012168FB
:1023A000CA610126800502D40AE0800506D5022014
:1023B000054321680002C861012601E0002E0FD00C
:1023C0002046FFF779FF20684168074A11404160C5
:1023D000606C28436064202078700020B8703870EA
:1023E000304605B0F0BD000000E800FEF8B5044638
:1023F000164615481D46DAB20090079F0023204676
:1024000000F054F83A462046069900F0C1F800283A
:1024100018D12846F5B2012809D02168300A88620F
:102420003A462046069900F0B3F800280AD1206801
:1024300085620097002240212046069B00F04CF860
:10244000002800D00120F8BD00200080F8B5044627
:10245000164615481D46DAB2C3020090079F204673
:1024600000F024F83A462046069900F091F800283A
:1024700018D12846F5B2012809D02168300A8862AF
:102480003A462046069900F083F800280AD12068D1
:1024900085620097002280212046069B00F01CF8F0
:1024A000002800D00120F8BD00200080890510B56B
:1024B000890D12041143029C19430268214349000B
:1024C00050684908630D034C234398430843506008
:1024D00010BD0000FF63FF03F8B51E4617460D460A
:1024E00004461EE0701C1CD0FEF7FAFE0699401A46
:1024F000B04201D8002E14D1206881692846884353
:102500000DD00020B8420CD1616C202001436164E1
:10251000403460700020A07020700120F8BD0120C0
:10252000F0E7206881692846884304D00020B8423B
:10253000D8D00020F8BD0120F9E770B516460D4649
:1025400004461EE0324629462046FFF7C7FE002813
:1025500001D0012070BDFEF7C3FE801BA84201D848
:10256000002D0ED120688069C043800609D5616CBA
:10257000202001436164403460700020A07020700E
:10258000E7E720688069C0438006DBD4002070BD87
:1025900070B516460D46044620E0324629462046D0
:1025A000FFF79CFE002801D0012070BD681C15D0EB
:1025B000FEF796FE801BA84201D8002D0ED12068A0
:1025C0008069C043800709D5616C202001436164A4
:1025D000403460700020A0702070E5E720688069BA
:1025E000C0438007D9D4002070BD0000F0B587B08B
:1025F00014216846FEF75FF92F4842690121C9049A
:102600000A43426142690A4005924269C9000A438D
:10261000426142690A400592426949110A43426196
:1026200042690A400592426949000A434261406991
:1026300003260840B6030590002231461F48FEF7E6
:1026400048FEFF27F137092000223946C006FEF771
:1026500040FE00221A491B48FEF73BFE00240125DC
:10266000029469461548009601950394FEF75AFDB9
:10267000032000900920019469460294C006FEF7E9
:1026800051FD092002946946C00600970195039404
:10269000FEF748FD0A4800900294694601950394AC
:1026A0000848FEF73FFD01946946064800960294EB
:1026B000FEF738FD07B0F0BD0010024000080048EA
:1026C000FF3000000004004810B5134811490160B4
:1026D00012494160002181600161416181610122F3
:1026E000C161C2600162FEF74BFE002801D0FEF717
:1026F000C1FC00210848FEF7F9FD002801D0FEF7D3
:10270000B9FC00210448FEF716FE002801D0FEF7B0
:10271000B1FC10BD00540040A000002022081000B1
:1027200010B51348114901601249416000218160D0
:102730000161416181610122C161C2600162FEF7F4
:102740001FFE002801D0FEF795FC00210848FEF787
:10275000CDFD002801D0FEF78DFC00210448FEF7D6
:10276000EAFD002801D0FEF785FC10BD00580040AE
:10277000F40000202208100010B50C480A4901603E
:10278000E1214902416000218160C16001618161F4
:10279000C1610C22016242614162FFF79BFC00288B
:1027A00001D0FEF767FC10BD003801404801002051
:1027B00010B50C480A490160E1214902416000213D
:1027C0008160C16001618161C1610C22016242616D
:1027D0004162FFF77FFC002801D0FEF74BFC10BDE3
:1027E00000440040D0010020FEE770477047000021
:1027F00010B5012002F096FC024901200860FEF7A6
:10280000B1FF10BD4C03002030B595B030216846B3
:10281000FEF751F8002401200E94010413940F9444
:10282000109409910D940090019003210C9412943E
:10283000022589040B90119408950A916846FFF7C8
:1028400021F9002801D072B6FEE707200C900E9403
:1028500000210D950F940CA8FFF756F8002801D021
:1028600072B6FEE72120109010201390129410A849
:10287000FEF7D6FF002801D072B6FEE715B030BDD6
:10288000704710B5818CC90707D001684A680123D9
:102890005B049A43836A1A434A60818C890707D58F
:1028A00001684A6801231B049A43C36A1A434A60B9
:1028B000818C490707D501684A6801239B049A4324
:1028C000036B1A434A60818C090707D501684A687F
:1028D0000123DB039A43436B1A434A60818CC90688
:1028E00007D50268916801231B039943836B194341
:1028F0009160818C890607D501688A6801235B0392
:102900009A43C36B1A438A60818C490612D50368C7
:102910005A6801210905046C8A4322435A60026CFB
:102920008A4207D10268516803235B059943436CCF
:1029300019435160818C090607D501684A68012353
:10294000DB04806C9A4302434A6010BDFEB5074623
:102950000025803704467D60FEF7C2FC01902068A8
:102960000068264600076036002819DA27480090DC
:102970000121002249052046019B00F01BF9002897
:102980000ED0EFF31080012181F3108821680A68CE
:1029900080239A430A6080F310882020E06729E0B2
:1029A00020680068400728D51848009001210022BF
:1029B00089052046019B00F0FDF800281DD0EFF3AB
:1029C0001080012181F3108821680A68FF232133D8
:1029D0009A430A6080F31088EFF31080012181F39D
:1029E000108821688A68520852008A6080F3108833
:1029F0002020386035760320FEBD2020E067386057
:102A00002566656635760020FEBD0000FFFFFF01EC
:102A100010B5406A0022014640314A834A82FFF7DE
:102A20000EFA10BD10B5EFF31081012282F3108869
:102A300002681368FF242134A343136081F31088D4
:102A4000EFF31081012282F31088026893685B081B
:102A50005B00936081F31088016E01290BD1EFF3C5
:102A60001081012282F31088026813681024A343A6
:102A7000136081F31088202280210A500021016612
:102A8000816610BD70B5044680682169E26908431B
:102A90006169002511432268084311683F4B1940C2
:102AA0000143116021684868032212039043E268E1
:102AB00010434860A169206A084321688A680B2393
:102AC0001B029A4302438A6035492068884210D12C
:102AD0003448006B8007800F0ED0012805D00228F3
:102AE00005D003280AD1022109E0042107E00821CA
:102AF00005E02D49884201D1002100E0102101208C
:102B0000E369C003294A2A4E834222D1002906D014
:102B1000022907D0042907D0082935D108E0FEF79B
:102B200077FF03E0104603E0FEF782FF002830D075
:102B3000616840004A088018FDF704FF014610391B
:102B4000B14221D81A49491C01400007400F0843EF
:102B50001DE0002906D0022907D0042907D0082942
:102B600012D108E0FEF754FF03E0104603E0FEF741
:102B70005FFF00280DD061684A081018FDF7E2FEDB
:102B800001461039B14201D9012502E080B2216825
:102B9000C8600020A066E066284670BDF369FFFFAC
:102BA00000380140001002400044004000127A004A
:102BB000EFFF0000FFB5064681B0803605460446AB
:102BC00060350A9F2EE0781C2CD0FEF789FB049913
:102BD000401AB84214D8002F12D020680168490763
:102BE00020D5C169C94309070CD4082707622046CC
:102BF000FFF718FF776000202876012005B0F0BDB0
:102C00000320FBE7C069C04300050BD40120216805
:102C1000C00208622046FFF705FF202070600020F8
:102C20002876EDE72068C1690298884305D0002125
:102C300003988142C7D00020E0E70121F8E70000B7
:102C400010B507480068C169890605D5808CC1B2F6
:102C5000002000F04DFE10BD0148FFF7F1F810BD57
:102C60004801002010B50248FFF7EAF810BD000047
:102C7000D0010020F8B5040C8BB2264682B25E4328
:102C80000D0C1046370C5843360480190021794149
:102C900016466E43370C36048019794126466E433A
:102CA0008919F8BD8307FF22DB0E9A408907090EB8
:102CB0009940002808DB830809489B001B18186806
:102CC00090430843186070470007000F08388308D6
:102CD00004489B001B18D86990430843D86170478B
:102CE00000E400E000ED00E030380A2801D20120C5
:102CF000704700207047704770470000F8B51746CE
:102D00000D4600240DE0A600A859002100F0A0FB0C
:102D1000A959002801D006A000E00DA0FDF700FB96
:102D2000641CBC42EFDB00F033FA0020F8BD000069
:102D30002573206D6F64756C6520736574206469FC
:102D40007361626C656420737563636573730A00F5
:102D5000756E6B6F6E77206D6F64756C653A2025AC
:102D6000730A000070B50C46022A04D008A0FDF7D3
:102D7000D7FA002070BD206802F080F9054660682F
:102D8000FDF766FC81B2284601F06AFDF1E700001C
:102D90006572726F7220706172616D0A00000000CE
:102DA00070B50C46022A04D008A0FDF7B9FA00203D
:102DB00070BD206802F062F905466068FDF748FCC6
:102DC00081B2284602F078FA04A0EEE76572726FCD
:102DD0007220706172616D0A000000007772697480
:102DE0006520653270726F6D20646F6E650A000039
:102DF000F8B517460D4600240DE0A600A85901219C
:102E000000F026FBA959002801D006A000E00DA083
:102E1000FDF786FA641CBC42EFDB00F0B9F9002034
:102E2000F8BD00002573206D6F64756C65207365B7
:102E30007420656E61626C6564207375636365738D
:102E4000730A0000756E6B6E6F77206D6F64756C22
:102E5000653A2025730A000010B50021024A084691
:102E600000F08CFC10BD0000C1300008002210B53D
:102E70001146104600F082FC01490020087010BD88
:102E80001000002010B51349024600240878082AD3
:102E900006D01B2A10D00D2A19D00A2A17D017E005
:102EA0004A680124002A01DD521E4A60497808421E
:102EB0000ED00949082007E000224A604978012421
:102EC000084205D004490A20FDF7CFFB00E00124A9
:102ED000204610BD100000207400002010B51748D7
:102EE000846817A0FDF71CFA1EE0FDF713FC092803
:102EF00020D316A12068FDF7E1FC00281AD016A106
:102F00002068FDF7DBFC002814D016A02168FDF72F
:102F100007FAA168002902D013A0FDF701FA1349AE
:102F20000A20FDF7A2FB0C34206801780029DCD1CF
:102F3000002010BD0EA02168E9E70000100000206D
:102F4000616C6C20636D64733A0A0000636C6561A8
:102F5000725F646174610000636C6561725F6C6FC5
:102F6000670000002573090020257300740000200D
:102F7000257309090000000010B5074C0548A06042
:102F80000649012002F04AF9FFF766FF0120207090
:102F9000607010BD68540008100000201D34000847
:102FA00010B5086802F06AF8C4B2204601F006FBCA
:102FB000214602A0FDF7B4F9002010BD636D642026
:102FC0003D203078253032780A00000070B50C467C
:102FD0000868FDF73DFBC5B2606802F04FF8C1B26A
:102FE0002846A26801F032FB002070BD70B50EA229
:102FF0000FA611A514A40021012001F027FB3246E1
:103000000021022001F022FB2A460021032001F0CA
:103010001DFB22460021042001F018FB0DA0FDF746
:103020007FF9002070BD0000616263640000000051
:10303000313233343500000068656C6C6F20776F77
:10304000726C642100000000303132333435363781
:103050003839000073656E6420746F206C63640AF5
:103060000000000010B50121002249030348FEF7CB
:1030700030F903A0FDF754F9002010BD000400480A
:103080006C6564206C6F770A0000000010B50122A7
:1030900051030448FEF71DF903A0FDF741F9002094
:1030A00010BD0000000400486C6564206869676812
:1030B0000A00000010B500F06BF8002010BD000001
:1030C000F8B50025284C064600294AD1A0780028EA
:1030D00001D00A2E0ED0A570012002F0CDF8234FAA
:1030E0000A2E0BD00D2E07D03046FFF7CBFE00285E
:1030F00038D121E0A57035E00120A07020786178FA
:10310000084202D01AA0FDF70BF9606806223D5470
:1031100018A11648FDF720FB002804D013490846E3
:103120003C30FDF7D1FA1148FDF7F4FA002818D029
:103130000E4800F065F814E020786178084203D06A
:103140000E493046FDF791FA60683E54401C6060BD
:103150003B2807DB20786178084202D008A0FDF701
:10316000DFF865600120F8BD100000205802002043
:103170000A00000072657065617400007400002030
:10318000636D6420746F6F206C6F6E670A000000BF
:1031900010B50DA0FDF7C4F80024E0B200F0ECFD7E
:1031A000002805D0E0B200F0D3FD01460EA004E0F7
:1031B000E0B200F0CDFD01460EA0FDF7B1F8641CB1
:1031C000052CEADB10BD00000A6D6F64756C65208C
:1031D0006F757470757420737461747573206C6985
:1031E00073743A0A000000002573205B7965735DF3
:1031F0000A0000002573205B6E6F5D0A000000006E
:10320000F1B58AB02AA10A98FDF758FB00260125DE
:103210002A4C002819D02AA10A98FDF74FFB002854
:103220001AD02078002815D0AD1E20210A98FDF76D
:1032300041FA002801D00670401C0A236A4625A1E5
:1032400001F039FF0646A76813E023A0FDF768F8F0
:10325000257066700BB0F0BD2AA0FDF761F82570EF
:103260006670002015E00A99FDF728FB002813D0AE
:103270000C37386801780029F5D1207861782E461E
:10328000084202D02DA0FDF7F5F960780028E1D1C1
:10329000304600F0D1F8DDE77B68324669460A988F
:1032A00098470646386800780028E6D0EDE7000029
:1032B000676976656D65636D64000000100000202D
:1032C000676976656D65636D645F666F725F4149BE
:1032D0000000000020000000636D6420656E6162E4
:1032E0006C652C20696E7075742068656C70207434
:1032F0006F20676574206176616C696420636D641A
:103300000A000000636D64207769746820666F723C
:103310006D617420656E61626C652C20696E7075DC
:10332000742068656C7020746F2067657420617606
:10333000616C696420636D640A000000696E7661E7
:103340006C696420636D640010B504220849002094
:1033500000F094FB06487D210068C9000446FDF793
:10336000FBFA0146224603A0FCF7DAFF002010BD5D
:1033700044000020726561642063757474696E672F
:103380005F74696D653A256C64732C20256C646DDF
:10339000730A000010B5002001F058FAFDF776FC22
:1033A0000C4901F0B7FF0C49FDF77CFBFDF72AFC47
:1033B0000A21FDF7C7FA0A46014608A0FCF7B0FF4C
:1033C000094800F00BFB014608A0FCF7A9FF00200C
:1033D00010BD000000401C4400007A4474656D700C
:1033E0003A25642E25640A004C55000874656D70FA
:1033F0003A25750A0000000010B5002A04DD0868AF
:10340000FDF726F9010001D17D21C900012001F05D
:1034100025FF00F003F8002010BD000000B58FB0BC
:1034200004496846FDF750F96846FFF7E9FE0FB01A
:1034300000BD00009402002010B5002000F0C8F983
:103440000122024901F0A5FC10BD000064540008EF
:10345000F8B500250E4607462C46E0B200F078FC91
:1034600001463846FDF72AFA002806D00BA1384657
:10347000FDF724FA002806D00AE0E0B2314601F058
:1034800069FA012507E0E0B2314601F063FA01254F
:10349000641C052CE1DB2846F8BD0000616C6C0063
:1034A00070B50024104E2546304601F08BFA2146B7
:1034B000641CA4B20DA0FCF733FF6D1C052DF3DBDB
:1034C0000DA0FCF72DFF00257D262C46F60030468A
:1034D00001F06AFA2146641C08A0FCF721FF6D1C6C
:1034E000052DF4DB002070BD40420F00746573743D
:1034F0005F75733A25640A000A00000074657374EE
:103500005F6D733A25640A0070B586B001F0C2FEA3
:10351000C66801F0BFFE856801F0BCFE446801F09A
:10352000B9FE01682B4622460EA00096FCF7F8FE75
:1035300001F0ACFE014613A0FCF7F2FE01F028FEFC
:1035400005A9009104AB03AA02A901F09FFC05990B
:103550000190009102AC0ECC0EA0FCF7E1FE002021
:1035600006B070BD736F66747761726520766572A0
:1035700073696F6E3A2025642E25642E25642E25EE
:10358000640A00006275696C642074696D653A2094
:1035900025730A0072756E2074696D653A20256482
:1035A000206461792C20253032643A253032643A27
:1035B000253032642E253033640A000010B50868C7
:1035C000FDF746F87D21C9000A4C484320600422DB
:1035D0002146002000F088FA20687D21C9000446B9
:1035E000FDF7BAF90146224603A0FCF799FE002038
:1035F00010BD000044000020777269746520637577
:103600007474696E675F74696D653A256C64732CB8
:1036100020256C646D730A0010B5084900220A80E9
:10362000488000F00FF80649032001F0F7FD4B2118
:10363000C900032001F012FE10BD00004000002070
:103640004536000810B50C4C2088618888420ED29F
:1036500000F01EF80949042001F0E0FDFF212D31A2
:10366000042001F0E9FD2088401C208010BD0320CB
:1036700001F002FE10BD000040000020813600086D
:1036800010B5092000221021C006FDF722FE10BD52
:1036900010B5092001221021C006FDF71AFE10BD49
:1036A000F8B5144C606901F029FDE16846187D21E8
:1036B000C9003046FDF750F9A169054688420ED091
:1036C000606901F01BFD21694718606901F016FD72
:1036D000E1683A464018A16800F08EFEA561606876
:1036E000864205DB0320FFF797FF022001F0C4FDAF
:1036F000F8BD000040000020F8B50F460C214843FB
:1037000000250B492C464618A0003258002A04D048
:10371000002D07D0012138469047641C032CF3DBB1
:103720002846F8BD0021384690470546F5E70000D9
:10373000D0020020F1B500980C4C8700E05901F050
:103740001BFB061E10DD00250CE0E05901F0A4FA79
:10375000C1B20098FFF7D0FFE05901F00DFB00283F
:1037600002D06D1CB542F0DBF8BD00001C0000204B
:10377000014A8000115070471C00002070B51546AA
:103780000C460646032904D305A25D210AA001F0D8
:103790009BFB0C2046430D483018A100455070BDDE
:1037A0006F72646572203C206B436F6D48616E647C
:1037B0006C654D61780000002E2E5C757365725C3F
:1037C0007372635C636F6D2E63000000D002002093
:1037D00001498000085870471C00002010B5040003
:1037E00004D004A2352108A001F06EFB0C49E000D2
:1037F000401810BD636F6D5F6964203C206B436FA0
:103800006D49444D617800002E2E5C757365725CC5
:103810007372635C6472765F636F6D2E6300000089
:103820002000002070B5002440681546091D02D014
:103830002724204670BD103001F0FBFB2860F8E71C
:10384000FFB54568002481B01F46164610350EE0CE
:10385000284601F0BBFB0028FAD1284601F05AFBAC
:10386000017802980155284601F0BAFB641CB44265
:10387000EEDB002F00D03E60002005B0F0BD70B53B
:103880001C461546406801F089FC002804D0002C35
:1038900000D02560002070BD002C01D000202060E9
:1038A0000020C04370BD000010B50D4C0222202145
:1038B0000A550C49A1600020207320464022103098
:1038C0000123A11A01F052FB22460748074901F0E3
:1038D000F1F9A0680068016820221143016010BD61
:1038E0001C03002048010020200000205C55000837
:1038F00013B524214843074944182046103001A934
:1039000001F07CFB203421780120034A89005050CB
:103910001CBD00001C0300204C03002070B5064EA7
:1039200005460024E000801900F018FA2855641CB0
:10393000032CF7DB70BD00006C55000810B5044681
:1039400001F021F8A18800222068FDF7C2FC1920AF
:10395000400101F037F8A18801222068FDF7B9FC89
:103960001E2001F02FF82046FDF758FB002800D05C
:10397000012010BD70B5002504462E46204601F0FA
:1039800002F8A18800222068FDF7A3FC042001F0C2
:1039900019F8A18801222068FDF79BFC204600F061
:1039A000E1FF0A2001F00EF86D08A1882068FDF7FC
:1039B0008BFC002801D0802005433C2001F002F858
:1039C000204600F0E0FFA18801222068FDF781FC7D
:1039D000761CF6B2082ED1D3284670BD70B50546C8
:1039E000FFF7ACFFCC21284600F026F844212846FA
:1039F00000F022F8FDF774FC04462846FFF7BAFFF2
:103A0000FF2804D0FDF76CFC001BC828F5D9284618
:103A1000FFF794FFCC21284600F00EF8BE2128467F
:103A200000F00AF82846FFF7A5FF04462846FFF7EE
:103A3000A1FF0002204370BD70B50E46044600F0A1
:103A4000A2FF0025A18800222068FDF742FC042087
:103A500000F0B8FFF207D20FA1882068FDF739FC0B
:103A60003C2000F0AFFFA18801222068FDF731FC67
:103A70006D1C7608EDB2082DE4D370BD0EB500299B
:103A800011D092B2642301920293009182B2012379
:103A9000A1210648FDF7CEFC002803D004A0FCF7C6
:103AA0003FFC01200EBD0AA0F9E70000A0000020A5
:103AB0004932435F526561642053797320506172CB
:103AC000612072656164206572726F720A00000085
:103AD0004932435F52656164207044617461204ED5
:103AE000554C4C0A00000000F7B584B004250C4684
:103AF00029460498FCF726FF681AC6B2069800917A
:103B00008005070E29460698FCF71CFFC8B20099ED
:103B10000390002935D00698B0425FD9801B8105FB
:103B20000F0E2946FCF70EFFC8B20390002E11D0ED
:103B300064200290012301960094A0212B48049A4E
:103B4000FDF722FD0498A419801980B20490052085
:103B5000FDF7D6FA642638467F1EFFB2002830D023
:103B6000684670C00123A0212048049AFDF70CFD8F
:103B700004986419401980B204900520FDF7C0FA3A
:103B8000E9E7002F16D0642638467F1EFFB20028D2
:103B900017D0684670C00123A0211448049AFDF78D
:103BA000F3FC04986419401980B204900520FDF7D5
:103BB000A7FAE9E76420039913E0029600940190C4
:103BC00003E003980028F8D105E00123A02107486D
:103BD000049AFDF7D9FC002007B0F0BD06996420D7
:103BE00089B2009401910290EFE70000A00000204C
:103BF00010B50446032804D304A21A210CA001F036
:103C000063F900200F4AA100505010BD6576656E23
:103C100074203C2073737A5F61727261795F73699B
:103C20007A6528675F6576656E7473290000000009
:103C30002E2E5C757365725C7372635C6576656E5F
:103C4000742E63004C03002010B50446032804D3EF
:103C500005A2272109A001F037F90D48A10040581D
:103C6000002800D0804710BD6576656E74203C202A
:103C70006B4576656E7449444D6178002E2E5C75F7
:103C80007365725C7372635C6576656E742E630037
:103C90004003002010B50446032804D305A21E21CA
:103CA0000DA001F011F91149A0000858012800D019
:103CB000002010BD6576656E74203C2073737A5FBA
:103CC00061727261795F73697A6528675F6576658D
:103CD0006E747329000000002E2E5C757365725C93
:103CE0007372635C6576656E742E63004C0300200E
:103CF00070B50D460446032804D304A2232108A06E
:103D000001F0E2F80B49A0000D5070BD6576656EBC
:103D100074203C206B4576656E7449444D61780093
:103D20002E2E5C757365725C7372635C6576656E6E
:103D3000742E63004003002008B5694608700A230A
:103D400001220248FEF756FA002008BD4801002073
:103D50000149C000085870477800002010B504469B
:103D600081880068FDF7B0FAA179884201D101206D
:103D700010BD002010BD00000249C00040180079AD
:103D8000704700007800002010B500210C4A08465A
:103D900000F06EFA0B4A0121002000F069FA084A8F
:103DA0000021012000F064FA0121064A084600F0D3
:103DB0005FFA054A0021022000F05AFA10BD000007
:103DC000AD3F0008C93F0008F5480008F8B50E46A9
:103DD0000446042801D2022E04D3164A164917A01D
:103DE00001F072F81A4D00202870012068702846F2
:103DF0001030076817480C214C432418002F04D0BA
:103E0000A17A607A00233246B847B0002258687819
:103E1000002804D0002A02D0A17A607A90470C488A
:103E200010304768002F04D0A17A607A2B78324690
:103E3000B847F8BD1C5900080B0200002E2E5C7517
:103E40007365725C7372635C6B65792E630000004E
:103E500028000020AC030020FFB581B001980D467A
:103E6000032801D2032D05D3FF211FA2CD3128A0A5
:103E700001F02AF82B4C00202070012720466770A3
:103E800008300668002E04D000222946049B0198C1
:103E9000B04701981C21484323494018A9004658BF
:103EA0006178002913D0002E11D0012D0BD0039979
:103EB000002901D027700AE0807D002803D000F09F
:103EC00015F9012803DC277004990198B0471548BB
:103ED00008304668002E04D022782946049B0198B9
:103EE000B04705B0F0BD00006B6579203C206B4BFE
:103EF000657949444D6178202626206D7367203C02
:103F0000206B4B65794576656E744D6178000000D5
:103F10002E2E5C757365725C7372635C6B65792EB3
:103F200063000000280000205803002010B5542131
:103F3000084800F0A7FF07483021543000F0A2FFE6
:103F40000821054800F09EFF0449002001F066F9B1
:103F500010BD00005803002030000020554200082A
:103F600070B500240546032805D3FF2106A2503171
:103F700009A000F0A9FF284600F0DAF9002800D0D7
:103F80000124204670BD00006B6579203C206B4BFE
:103F9000657949444D6178002E2E5C757365725CBD
:103FA0007372635C6B65792E6300000010B501F0DD
:103FB000EFF8044948610521022001F04FF900F0B3
:103FC0005BFB10BD4000002038B5022001F054F921
:103FD00000F048FB0B4C606901F090F8A5680146C1
:103FE0006D1CA560E0684218E260206943182361F7
:103FF00005480095FCF794F92269A168E06800F093
:10400000FBF938BD4000002088590008F3B581B0A5
:104010000646002400F06AF802283DD10C2027460D
:10402000474321483D18287A00281FD0687AB042BB
:1040300004D1A87AFFF794FF002807D1A87AB042EC
:1040400014D1687AFFF78CFF00280FD0042C05D319
:10405000972116A2890020A000F036FF0C202146EF
:10406000414311484158002908D103E0641C042C45
:10407000D4D311E03818406800280DD002980028E9
:1040800009DC0023F0B201221946FFF7E5FE00210A
:104090002046FFF79BFEFEBD0022F0B21146029BB8
:1040A000FFF7DAFEFEBD0000AC03002069203C20D3
:1040B00073737A5F61727261795F73697A65286779
:1040C0005F636F6D62696E6174696F6E5F6B657956
:1040D0005F696E666F7329002E2E5C757365725C66
:1040E0007372635C6B65792E6300000070B5002508
:1040F0002C46E0B2FFF734FF002800D06D1C641C92
:10410000032CF6DB284670BDF8B506460023C0B286
:104110001A460121FFF7A0FE0F4F00240C20604338
:10412000C519287A002813D0687AB04204D1A87A39
:10413000FFF716FF002807D1A87AB04208D1687AA5
:10414000FFF70EFF002803D001212046FFF73EFEB7
:10415000641C042CE2D3F8BDAC030020F8B507467C
:104160006846FFF7DBFB00252E461C212A464A4302
:104170002F4968465418182140576156884206D086
:10418000E17DC91949B2E1750A2901DB2076E6759E
:10419000207E01282BD0E660E8B200F0C9F8617EED
:1041A00081420BD0607600282CD0012830D0022824
:1041B00035D020A2204921A000F086FE607E022892
:1041C00011D31020205E00280DDDA18AC91909B283
:1041D000A182814207DBA682608A401C01B2618213
:1041E0002846FFF713FF6D1C032DBEDBF8BDE0680A
:1041F000002805D0C019E060CED51548E060CBE7B7
:104200000A20FBE7A68266822846FFF77DFFD5E7F6
:10421000A682668200212846FFF7F8FECEE7A68236
:1042200000236682E8B21A460221FFF715FEC5E7B1
:104230005803002000000000DF0200002E2E5C75F5
:104240007365725C7372635C6B65792E630000004A
:10425000FFFFFF7F10B5054C606800F04FFFFFF7D0
:104260007DFF00F095FF606010BD00002800002079
:1042700070B516460D460446032801D2032D04D31B
:1042800007A2A62110A000F01FFE1C2013496043C6
:104290004018A90046500021204600F021F870BDCA
:1042A0006B6579203C206B4B657949444D617820E2
:1042B0002626206576656E74203C206B4B6579451B
:1042C00076656E744D6178002E2E5C757365725C38
:1042D0007372635C6B65792E6300000058030020E5
:1042E0001C225043034A80180182002181824182AE
:1042F000704700005803002010B500F049FF0A493C
:1043000048600020094902461C2343435B18401CB7
:10431000DA750328F8DB0221002000F09FFF02205D
:10432000FFF71CFF10BD00002800002058030020EC
:104330001C21484307494018C068FF21F5318842D5
:1043400001DB02207047002801DD012070470020BA
:10435000704700005803002070B50925ED060022C3
:1043600080212846FCF7B5FF012240212846FCF7B2
:10437000B0FF0F4C606981B2FF200143616100F022
:1043800019F8012220212846FCF7A3FF052000F0A0
:1043900019FB80212046FCF797FF064600222021CA
:1043A0002846FCF796FF002EEBD100F013F870BD05
:1043B0000004004800B585B0FF2000900020019067
:1043C0000290039069460248FCF7ACFE05B000BDC0
:1043D0000004004800B585B0FF2000900120019046
:1043E00000200290039069460248FCF79BFE05B04E
:1043F00000BD000000040048F7B58AB00D4607462E
:10440000202101A8FCF757FA7D26F60031463846F0
:10441000FCF7A2FA3C21FCF79FFA0C4624493846E7
:10442000FCF79AFA6421FCF797FA0A46234621A181
:1044300001A8FBF783FF01AA0521012000F006F97E
:10444000202101A8FCF737FA2A461DA101A8FBF795
:1044500075FF01AA0521022000F0F8F8202101A82B
:10446000FCF729FA31460C98FCF776FA04463C2111
:10447000FCF772FA0D46E12109012046FCF76CFABF
:10448000064608463C21FCF767FA0446304664219C
:10449000FCF762FA0A4623460BA101A80095FBF738
:1044A0004DFF01AA0421032000F0D0F80DB0F0BDAB
:1044B00060EA0000253032643A25303264000000A2
:1044C0002530346400000000253032643A25303253
:1044D000643A25303264000070B5FFF77BFF1C485A
:1044E00000F070FA302000F069F8C82000F06AFA95
:1044F000302000F063F8C82000F064FA0C2000F0CF
:104500005DF8C82000F05EFA012000F057F811486D
:1045100000F058FA062000F051F8642000F052FA3A
:104520000DA211A614A518A40021012000F08EF8F8
:1045300032460021022000F089F82A46002103209B
:1045400000F084F822460021042000F07FF870BDBE
:1045500050C30000204E0000B9A4D7F7CAB1BCE494
:104560003A2030303A303000C7D0B8EEB5B6CAFD88
:104570003A20303030300000D7DCCAB1B3A43A2042
:1045800030303A30303A30300000000010B50128A9
:104590000AD002280BD003280DD0042803D198207C
:1045A000084300F00BF810BD0846802101E00846E2
:1045B00090210843F5E708468821FAE770B50446DC
:1045C000FFF7CAFE0925ED06002280212846FCF7E8
:1045D00080FE002240212846FCF77BFE012220219C
:1045E0002846FCF776FE06484169FF221202114078
:1045F00021434161002220212846FCF76AFE70BD5C
:104600000004004870B50446FFF7A6FE0925ED0634
:10461000012280212846FCF75CFE0022402128462A
:10462000FCF757FE08484169FF221202114021435E
:104630004161012220212846FCF74BFE0022202167
:104640002846FCF746FE70BD0004004810B514462D
:10465000FFF79CFF02E0FFF7D5FF641C20780028DD
:10466000F9D110BD10B50121002249030148FCF722
:1046700030FE10BD0004004810B50122510302486D
:10468000FCF727FE10BD000000040048FDF772F89B
:10469000FEF7BAF8FDF7AAFFFEF716F8FEF740F8A6
:1046A000FEF76AF8FEF784F800F01AF8FEE770B536
:1046B00000252C46E0B2FFF7EDFA002806D0E0B264
:1046C000FFF796FAE0B2FFF7BFFA0125641C032C4E
:1046D000F0DB284670BD10B50020FFF72BF810BDA9
:1046E00008B5FFF7E1F80020FFF778F80146002051
:1046F000FFF73EF800F096F81F490020FFF7F8FAA0
:104700001E490220FFF7F4FAFFF710FCFEF734FC15
:10471000FFF7F2FDFFF738FB042269460820FFF798
:10472000ADF91748009981420AD0009004226946E9
:104730000820FFF7D9F9042212490020FFF7D4F925
:10474000042210490020FFF799F9FFF7C5FE0E4932
:10475000022000F063FD00F099FD054600F0A8FD81
:10476000044600F09BFD01462B46224607A0FBF7BE
:10477000D7FDFFF79CFFFCE7BD510008D7460008B6
:104780005AA5000044000020A136000825732070BF
:104790006F776572206F6E0A25730A25730A000011
:1047A00010B504460079022804D307A22E210DA0DB
:1047B00000F08AFB207981000F484158002901D080
:1047C0002068884710BD00006F6E655F6D73672DB0
:1047D0003E6D73675F6964203C206B4D736749448D
:1047E0004D6178002E2E5C757365725C7372635C2C
:1047F0006D73672E630000006000002010B5084C48
:1048000007E0206800F076FBFFF7CAFF206800F0A1
:104810007DFB206800F076FB0028F2D010BD000080
:104820005C00002010B507480823142204490068E2
:1048300000F064FB04490120FFF75AFA10BD0000A4
:10484000DC0300205C000020FD470008034910B590
:10485000C0004018FFF7C2F810BD00004C5500081A
:10486000F3B5C817000E40180202000A150C00022A
:10487000C1B0081A87B26E4616E0FF2201326946BF
:104880004198FFF7FBF80024200702D116A0FBF7A0
:1048900047FD315D15A0FBF743FD641CFF2CF3DDE4
:1048A0004198FF300130419028466D1EADB200287E
:1048B000E3D1002F12D03A4669464198FFF7DEF85F
:1048C000002409E0200702D107A0FBF729FD315D94
:1048D00006A0FBF725FD641CBC42F3DB02A0FBF73E
:1048E0001FFD43B0F0BD00000A0000002530327803
:1048F0002000000010B50021064C0B46A160E160CD
:1049000005A02269FBF70CFD2269A168E068FFF7AA
:1049100073FD10BD400000200A63757272656E74ED
:104920005F74696D653A256C646D732C20746F74C7
:10493000616C5F74696D653A256C646D730A6375AB
:104940007474696E6720636F756E7465723A256C56
:10495000640A0000024AC00080180171704700001C
:104960007800002010B586B0044614216846FBF795
:10497000A2FFA08800900020019069462068FCF703
:10498000D1FB06B010BD10B586B0044614216846B0
:10499000FBF791FFA08800900120019069462068F4
:1049A000FCF7C0FB06B010BD70B5044600F0F0FB8C
:1049B000054600E030BF284600F0A0FBA042F9DB2E
:1049C00070BD000010B50521001DFBF7C5FF0446B2
:1049D000054804490068FBF7B5FF444300BF641E67
:1049E000FCD210BD40420F000C000020F8B50E466E
:1049F000040005D1FF212BA2A5312DA000F064FAFF
:104A00000025ED43002E4BDB0220205EB04247DD47
:104A10000020205E002843DD3146204600F0E0F80B
:104A2000002805D1FF2128A2A93121A000F04CFACD
:104A30002088012809D00421615E2046B14207D1B7
:104A400000F0E3F8A080054627E00020A08024E0E5
:104A500000F015F9B04220D0204600F010F90146D0
:104A6000204600F003F935B207462E4613E03146E2
:104A7000204600F0CAF80C22A25EA16850430B1831
:104A80001046704308181946FBF7B6FE314620461B
:104A900000F0BBF80646BE42E9D12088401E2080C7
:104AA0002846F8BD636F6E7461696E657200000020
:104AB0002E2E5C757365725C7372635C73737A5FC0
:104AC00064657175652E63004D5F69735F6E6F6419
:104AD000655F6F665F696E6465785F76616C696457
:104AE00028636F6E7461696E65722C20706F732914
:104AF0000000000010B5040004D109A2A6210BA0FB
:104B000000F0E2F90020205E002807DD04200C21DF
:104B1000205E615E4843A168401810BD002010BDB2
:104B2000636F6E7461696E65720000002E2E5C7595
:104B30007365725C7372635C73737A5F64657175BD
:104B4000652E6300F8B51E4617460D46040001D0D9
:104B5000002D04D105A24E210AA000F0B5F90020D5
:104B600020806780A080A681A560F8BD636F6E7409
:104B700061696E657220262620705F6E6F646573B2
:104B8000000000002E2E5C757365725C7372635CAE
:104B900073737A5F64657175652E630010B50400E8
:104BA00004D106A28B2108A000F08EF90020205E1F
:104BB000002801DC012010BD002010BD636F6E7461
:104BC00061696E65720000002E2E5C757365725C03
:104BD0007372635C73737A5F64657175652E6300CD
:104BE00030B5002200290EDB0224045F8C420ADD6E
:104BF000835E002B07DD0425455F481B00D5201888
:104C0000834200DD0122104630BD0246491C08B235
:104C10000221515E814201DC401A00B2704700005F
:104C200010B5040005D1FF2107A2663109A000F0EC
:104C30004BF90020205E002804DD0421615E20463F
:104C4000FFF7D4FE10BD0000636F6E7461696E657E
:104C5000720000002E2E5C757365725C7372635C6B
:104C600073737A5F64657175652E63000246491E31
:104C700008B2002802DA5188081800B270470146CD
:104C800080880A8880180222401E8A5E00B2824212
:104C900001DC801A00B2704708B50122694600F0B5
:104CA0002BF8002802D00020C04308BD68460078D9
:104CB00008BD000070B515460E46040004D106A2DA
:104CC000102107A000F000F90821204600F0DAF8D2
:104CD0002660656070BD000066696C6500000000BC
:104CE0002E2E5C757365725C7372635C73737A5F8E
:104CF00066696C652E63000010B5002300F002F8B1
:104D000010BD0000FFB581B01E461746040005D057
:104D10002068002802D04068002804D106A224217F
:104D20000FA000F0D1F82068334645683A46204687
:104D30000299A84705B0F0BD66696C65202626205B
:104D400066696C652D3E6465762026262066696C52
:104D5000652D3E6465762D3E726561645F666E000A
:104D60002E2E5C757365725C7372635C73737A5F0D
:104D700066696C652E63000008B5002100916A46E3
:104D8000091F00F047F8002801D0002008BD009856
:104D900008BD10B5002300F001F810BDFFB581B0CB
:104DA0001E461746040005D02068002802D08068FF
:104DB000002804D106A21B2110A000F085F820686D
:104DC000334685683A4620460299A84705B0F0BDAB
:104DD00066696C652026262066696C652D3E6465D3
:104DE000762026262066696C652D3E6465762D3E0C
:104DF00077726974655F666E000000002E2E5C7528
:104E00007365725C7372635C73737A5F66696C65F9
:104E10002E63000070B515460E46040005D02068CC
:104E2000002802D0C068002804D106A23C210FA0AF
:104E300000F04AF820682A46C36831462046984761
:104E400070BD000066696C652026262066696C6569
:104E50002D3E64657620262666696C652D3E646568
:104E6000762D3E63746C5F666E0000002E2E5C75BE
:104E70007365725C7372635C73737A5F66696C6589
:104E80002E63000010B5FBF714FD10BDF8B50F46FA
:104E90007D211D461646C900FBF75EFD0C460949FB
:104EA000FBF75AFD38600846E1210901FBF754FD84
:104EB000306008463C21FBF74FFD286006980160F2
:104EC0002046F8BD8051010013460A46014602A063
:104ED000FBF726FAFBF7E4FB25733A2564202573DC
:104EE000202D2D20417373657274204661696C0A10
:104EF0000000000010B5FFF7FDFD10BD10B5FFF775
:104F000021FE10BD10B5FFF749FE10BD10B5FFF72B
:104F100087FE10BD10B5040004D109A242210BA0E8
:104F2000FFF7D2FF02200421205E615E884205D097
:104F30000C21615E4843A168401810BD002010BDDF
:104F4000636F6E7461696E65720000002E2E5C7571
:104F50007365725C7372635C73737A5F73616665A9
:104F60005F71756575652E6300000000F8B51E461B
:104F700017460D46040001D0002D04D105A21421CE
:104F80000AA0FFF7A1FF278000206080A080A681F3
:104F9000A560F8BD636F6E7461696E657220262628
:104FA00020705F6E6F646573000000002E2E5C75CC
:104FB0007365725C7372635C73737A5F7361666549
:104FC0005F71756575652E63000000000221042283
:104FD000415E825E914201D10120704700207047FE
:104FE00002210422415E825E914206D00022825E4E
:104FF000491C8A4200DC00214180704770B504469C
:105000000420205E0022A25E451CAA4200DC00258E
:105010000222A25EAA4202D10020C04370BD0C222F
:10502000A25EA3685043C018FBF7E6FBA5800020F2
:1050300070BD014604200222085E8A5E801A02D5F5
:1050400000228A5E1018704710B50446FBF7DEF8A0
:105050000068005D202805D020464138052804D886
:105060000A3010BD2046303810BD20466138052872
:1050700001D80A3010BD0020C04310BD70B50546F0
:105080000024FBF747FB022810D9287830280DD1DF
:105090006878782801D0582808D1AD1C06E0FFF7C1
:1050A000D3FF411C05D0240104436D1C287800283F
:1050B000F5D1204670BDFFB581B0040003D00025B6
:1050C0002E462F4612E0002005B0F0BD0298FBF7F7
:1050D000F1FA002802D02770002606E0002E04D145
:1050E000A9000398012644506D1C641C21780029F6
:1050F00002D004988542E9DB2846E5E700B502497D
:10510000096800F003F800BD68000020814201DB5F
:10511000081A7047024A101A4018401C70470000D5
:10512000FFFFFF7F0649074A0B68D21A824202DA64
:10513000801A401E00E0181808600120886070473F
:1051400068000020FFFFFF7F401A0549884202D314
:105150004942884201DA0120704700207047000070
:10516000FFFFFF3F014600B50248006800F004F869
:1051700000BD000068000020044A121A8A4202DAC8
:10518000881A401E7047401870470000FFFFFF7FDD
:1051900001480068704700006800002010B5037BDC
:1051A0000024002B08D17D2392B28068DB00FDF73C
:1051B00021F8002800D00124204610BD10B5FF20A2
:1051C00000F002F810BD0000F1B5FFF7E1FF124E4C
:1051D0000746002420018519297B002918D0315861
:1051E0003846FFF7B1FF002812D0A87B009908428B
:1051F0000ED0687B002804D0E0B2696800F02EF879
:1052000002E0E0B200F038F8A868002800D080473B
:10521000641C052CDEDBF8BD8C04002000B50122E7
:1052200000F002F800BD0000030102481818816078
:10523000827370478C04002010B504460846FFF7BF
:1052400091FF02460448210142500022081842738F
:105250000121017310BD00008C04002070B50C46C4
:105260000546FFF7E9FF03482901081801214460BA
:10527000417370BD8C040020020103480021101806
:1052800001734173704700008C0400200048704790
:10529000AC550008004870478455000800A07047CE
:1052A0006375745F74696D696E675F7465737400AC
:1052B000004870479455000830B59BB00C46054631
:1052C000682207496846FAF767FFA8B2224669468E
:1052D000FEF70AFC03A0FBF723F81BB030BD00006B
:1052E000C45300080A00000010B500290AD008784D
:1052F000002807D005487844FBF7E0FA002801D0E1
:10530000002010BD0248784410BD00004207000094
:105310003A07000070B5420064414B005C41120E38
:1053200039D01B0E38D0FF2A3CD0FF2B3AD0400298
:105330004902400A490A060045184E43000A090A74
:10534000D2184843ED017F3A0104731A4019190C31
:105350004318990F04D001215B0849075B1A521CBE
:10536000D80904D3401CF50301D19D0607D0FF2ABC
:1053700008D2D50506D0E4072043401970BD0125A9
:10538000A843F4E7002A01DCE00770BD2402FF20F7
:105390002043C00570BD1B0EFF2A03D0FF2B01D098
:1053A000E00770BDFF2645003606B54206D84D0021
:1053B000B54203D8D218FF2A00D0E7E7004870BDF5
:1053C0000000C07F000102030405060708090A0B5C
:1053D0000C0D0E0F101112131415161718191A1B95
:1053E0001C1D1E1F202122232425262728292A2B85
:1053F0002C2D2E2F303132333435363738393A3B75
:105400003C3D3E3F404142434445464748494A4B64
:105410004C4D4E4F505152535455565758595A5B54
:105420005C5D5E5F60616263000002030405060765
:1054300008090A0B0C0D0E0F1010010203040506DB
:105440000708090A0B0C0D0E0F10000000000000E9
:105450000000010203040607080900000000010221
:105460000304000000000000B0580008DD2E000812
:10547000A0580008CC5800086D2E000804570008FA
:10548000C4580008F933000844560008E0580008E2
:10549000F12D0008F4570008F0580008FD2C000812
:1054A000A457000814570008B530000864570008D6
:1054B000B85800089533000850570008D85800081D
:1054C000A134000800590008EC560008652D0008BA
:1054D0009456000884570008A12D0008B45600080F
:1054E00030570008493300081C570008405700088F
:1054F000BD350008D4560008F8560008ED2F000806
:10550000D458000800570008A12F0008D4580008FC
:1055100010590008CD2F0008945700088C56000839
:105520008D300008FC5600088456000865300008DD
:10553000FC560008C0580008093500088C580008BF
:105540001859000800000000000000000008004892
:10555000008000000008004800400000000000003B
:10556000413800087F38000825380008000000484E
:105570000100000000000048020000000004004894
:105580000080000001000000010000000100000098
:10559000050000005665723A20312E312E312E352D
:1055A0000000000000000000000000004D617920B4
:1055B000203920323032332C2031343A35343A35E8
:1055C000310000000000000030313233343536370E
:1055D0003839414243444546403058003031323337
:1055E0003435363738396162636465664030780037
:1055F000040000080000000000000002000100009C
:10560000108182838485868788898B8C8D8E8F918B
:105610009293959697999A9C9D9FA0A2A3A5A7A8BF
:10562000AAACAEB0B2B3B5B7B9BCBEC0C2C5C7C9EB
:10563000CCCED1D4D7D9DCDFE2E6E9ECF0F3F7FA4F
:10564000FE000000726570656174206C61737420E7
:10565000636D6420656163682074696D652C2065E5
:105660002E672E20726570656174205B74696D65AC
:105670005F6D735D2C20726570656174203230300F
:10568000300000006C656430000000006C6564311F
:1056900000000000653270726F6D207265616420D9
:1056A00074657374205B307858585D205B73697A39
:1056B000655D0000653270726F6D20777269746588
:1056C0002074657374205B307858585D205B736973
:1056D0007A655D0077726974655F63757474696E6D
:1056E000675F74696D65205B735D00006532707281
:1056F0006F6D5F72656164006C6364006C6564006B
:10570000636D64006578697420636D64206D6F64F7
:10571000650000006D6F64756C6500007265616402
:105720005F63757474696E675F74696D650000000E
:10573000726561645F6375745F74696D6500000014
:1057400077726974655F6375745F74696D65000075
:10575000726561642074656D7065726174757265DF
:105760000000000073686F7720616C6C206D6F64BF
:10577000756C65206F7574707574207374617465D1
:1057800000000000653270726F6D5F77726974653A
:1057900000000000726F7720636F6C207374726971
:1057A0006E67000064697361626C65206D6F64757B
:1057B0006C652773206F75747075742E20652E6765
:1057C0002E2064697361626C655F6F7574707574A7
:1057D000205B6D6F64756C655F69645D2C20646926
:1057E0007361626C655F6F757470757420616C6C49
:1057F00000000000656E61626C65206D6F64756C01
:10580000652773206F75747075742E20652E672E52
:1058100020656E61626C655F6F7574707574205B76
:105820006D6F64756C655F6E616D655D2C20656E76
:1058300061626C655F6F757470757420616C6C0A61
:105840000909206D6F64756C655F6E616D653A2046
:10585000636F6D6D6F6E2C20696E667573696F6E08
:105860005F6D6F6E69746F722C206D6F746F720A4A
:105870000909206D6F746F725F6D6F6E69746F725E
:105880002C2073637265656E0000000073686F778B
:105890002073797374656D2076657273696F6E001D
:1058A00073686F7720636D6420696E666F00000017
:1058B00068656C700000000074656D700000000089
:1058C0007665720072657065617400006578697450
:1058D000000000006C6364207465737400000000B5
:1058E000656E61626C655F6F757470757400000041
:1058F00064697361626C655F6F75747075740000C4
:10590000746573742075732064656C6179000000A0
:10591000646973706C61790000000000636F6D62F0
:10592000696E6174696F6E5F6B65795F696E6465DE
:1059300078203E3D203020262620636F6D62696E00
:105940006174696F6E5F6B65795F696E64657820FD
:105950003C204B45595F434F4D42494E4154494FBE
:105960004E5F48414E444C45525F4D4158202626DB
:10597000206D7367203C206B4B65794576656E74AE
:10598000486F6C64000000000A6B65792072656CDA
:1059900065617365642C2074696D653A256C646D6E
:1059A000730A63757272656E745F74696D653A250A
:1059B0006C646D732C20746F74616C5F74696D65B9
:1059C0003A256C646D730A63757474696E6720633D
:1059D0006F756E7465723A256C640A007363726544
:1059E000656E0000636F6D6D6F6E0000696E6675A9
:1059F00073696F6E5F6D6F6E69746F720000000087
:105A00006D6F746F725F6D6F6E69746F72000000FE
:105A10006D6F746F72000000485B0008000000208A
:105A2000A0000000F8000008E85B0008A0000020CB
:105A3000A00A00001401000810010000430000004B
:105A4000F8FFFFFF0040404040404040404041419F
:105A50004141414040404040404040404040404043
:105A600040404040400502020202020202020202DD
:105A700002020202022020202020202020202002DA
:105A8000020202020202909090909090101010106A
:105A90001010101010101010101010101010101006
:105AA000020202020202888888888888080808089A
:105AB0000808080808080808080808080808080866
:105AC000020202024000000000000000000000008E
:105AD00000000000000000000000000000000000C6
